{
  "contracts/DAO.sol": {
    "Voter": {
      "abi": [
        {
          "anonymous": false,
          "inputs": [
            {
              "indexed": true,
              "internalType": "address",
              "name": "previousOwner",
              "type": "address"
            },
            {
              "indexed": true,
              "internalType": "address",
              "name": "newOwner",
              "type": "address"
            }
          ],
          "name": "OwnershipTransferred",
          "type": "event"
        },
        {
          "inputs": [
            {
              "internalType": "address",
              "name": "",
              "type": "address"
            },
            {
              "internalType": "uint256",
              "name": "",
              "type": "uint256"
            }
          ],
          "name": "allProposals",
          "outputs": [
            {
              "internalType": "uint256",
              "name": "initializedAt",
              "type": "uint256"
            },
            {
              "internalType": "uint256",
              "name": "deadLine",
              "type": "uint256"
            },
            {
              "internalType": "uint256",
              "name": "totalVoted",
              "type": "uint256"
            },
            {
              "internalType": "address",
              "name": "creator",
              "type": "address"
            },
            {
              "internalType": "bool",
              "name": "active",
              "type": "bool"
            }
          ],
          "stateMutability": "view",
          "type": "function"
        },
        {
          "inputs": [
            {
              "internalType": "uint256",
              "name": "",
              "type": "uint256"
            }
          ],
          "name": "companyDescription",
          "outputs": [
            {
              "internalType": "uint256",
              "name": "initializedAt",
              "type": "uint256"
            },
            {
              "internalType": "uint256",
              "name": "companyId",
              "type": "uint256"
            },
            {
              "internalType": "address",
              "name": "owner",
              "type": "address"
            },
            {
              "internalType": "string",
              "name": "companyName",
              "type": "string"
            },
            {
              "internalType": "bool",
              "name": "active",
              "type": "bool"
            }
          ],
          "stateMutability": "view",
          "type": "function"
        },
        {
          "inputs": [
            {
              "internalType": "uint256",
              "name": "_companyIndex",
              "type": "uint256"
            },
            {
              "internalType": "uint256",
              "name": "_deadLine",
              "type": "uint256"
            },
            {
              "internalType": "uint8",
              "name": "_inputTargets",
              "type": "uint8"
            }
          ],
          "name": "createProposalFromCompany",
          "outputs": [],
          "stateMutability": "nonpayable",
          "type": "function"
        },
        {
          "inputs": [
            {
              "internalType": "address",
              "name": "",
              "type": "address"
            },
            {
              "internalType": "uint256",
              "name": "",
              "type": "uint256"
            }
          ],
          "name": "isEmployee",
          "outputs": [
            {
              "internalType": "bool",
              "name": "",
              "type": "bool"
            }
          ],
          "stateMutability": "view",
          "type": "function"
        },
        {
          "inputs": [
            {
              "internalType": "uint256",
              "name": "",
              "type": "uint256"
            }
          ],
          "name": "onGoingProposals",
          "outputs": [
            {
              "internalType": "uint256",
              "name": "",
              "type": "uint256"
            }
          ],
          "stateMutability": "view",
          "type": "function"
        },
        {
          "inputs": [],
          "name": "owner",
          "outputs": [
            {
              "internalType": "address",
              "name": "",
              "type": "address"
            }
          ],
          "stateMutability": "view",
          "type": "function"
        },
        {
          "inputs": [
            {
              "internalType": "uint256",
              "name": "",
              "type": "uint256"
            }
          ],
          "name": "proposalsCreated",
          "outputs": [
            {
              "internalType": "uint256",
              "name": "",
              "type": "uint256"
            }
          ],
          "stateMutability": "view",
          "type": "function"
        },
        {
          "inputs": [],
          "name": "renounceOwnership",
          "outputs": [],
          "stateMutability": "nonpayable",
          "type": "function"
        },
        {
          "inputs": [
            {
              "internalType": "bytes32[]",
              "name": "_hashes",
              "type": "bytes32[]"
            }
          ],
          "name": "setHashes",
          "outputs": [],
          "stateMutability": "nonpayable",
          "type": "function"
        },
        {
          "inputs": [
            {
              "internalType": "string",
              "name": "_name",
              "type": "string"
            },
            {
              "internalType": "address",
              "name": "_companyRepresenter",
              "type": "address"
            }
          ],
          "name": "signCompany",
          "outputs": [],
          "stateMutability": "nonpayable",
          "type": "function"
        },
        {
          "inputs": [
            {
              "internalType": "uint256",
              "name": "_companyIndex",
              "type": "uint256"
            },
            {
              "internalType": "address",
              "name": "_employee",
              "type": "address"
            },
            {
              "internalType": "bytes32",
              "name": "_hash",
              "type": "bytes32"
            }
          ],
          "name": "signEmployee",
          "outputs": [],
          "stateMutability": "nonpayable",
          "type": "function"
        },
        {
          "inputs": [
            {
              "internalType": "uint256",
              "name": "_companyIndex",
              "type": "uint256"
            },
            {
              "internalType": "address",
              "name": "_proposalCreator",
              "type": "address"
            },
            {
              "internalType": "uint256",
              "name": "_proposalIndex",
              "type": "uint256"
            },
            {
              "internalType": "uint256",
              "name": "_input",
              "type": "uint256"
            }
          ],
          "name": "submitEmployeeVote",
          "outputs": [],
          "stateMutability": "nonpayable",
          "type": "function"
        },
        {
          "inputs": [
            {
              "internalType": "address",
              "name": "newOwner",
              "type": "address"
            }
          ],
          "name": "transferOwnership",
          "outputs": [],
          "stateMutability": "nonpayable",
          "type": "function"
        },
        {
          "inputs": [
            {
              "internalType": "uint256",
              "name": "",
              "type": "uint256"
            },
            {
              "internalType": "address",
              "name": "",
              "type": "address"
            }
          ],
          "name": "votedProposals",
          "outputs": [
            {
              "internalType": "uint256",
              "name": "",
              "type": "uint256"
            }
          ],
          "stateMutability": "view",
          "type": "function"
        }
      ],
      "evm": {
        "bytecode": {
          "linkReferences": {},
          "object": "6080604052600160025534801561001557600080fd5b5061003261002761003e60201b60201c565b61004660201b60201c565b6001808190555061010a565b600033905090565b60008060009054906101000a900473ffffffffffffffffffffffffffffffffffffffff169050816000806101000a81548173ffffffffffffffffffffffffffffffffffffffff021916908373ffffffffffffffffffffffffffffffffffffffff1602179055508173ffffffffffffffffffffffffffffffffffffffff168173ffffffffffffffffffffffffffffffffffffffff167f8be0079c531659141344cd1fd0a4f28419497f9722a3daafe3b4186f6b6457e060405160405180910390a35050565b611ec0806101196000396000f3fe608060405234801561001057600080fd5b50600436106100ea5760003560e01c80638565c7fe1161008c578063c9ec237411610066578063c9ec23741461025f578063ebaa97f71461027b578063f2fde38b14610297578063fad4b284146102b3576100ea565b80638565c7fe146101f15780638da5cb5b1461020d578063c00263991461022b576100ea565b806351850ffc116100c857806351850ffc146101575780635289e6ad14610187578063715018a6146101b7578063828e2dc6146101c1576100ea565b806308ec1fee146100ef5780630a17addd1461010b5780632fd8b4af1461013b575b600080fd5b61010960048036038101906101049190611677565b6102e7565b005b610125600480360381019061012091906115c3565b61070e565b604051610132919061199a565b60405180910390f35b6101556004803603810190610150919061156f565b610726565b005b610171600480360381019061016c91906115ec565b6108ab565b60405161017e919061199a565b60405180910390f35b6101a1600480360381019061019c91906115c3565b6108d0565b6040516101ae919061199a565b60405180910390f35b6101bf6108e8565b005b6101db60048036038101906101d691906114ee565b610970565b6040516101e8919061189f565b60405180910390f35b61020b60048036038101906102069190611628565b61099f565b005b610215610b15565b6040516102229190611884565b60405180910390f35b610245600480360381019061024091906114ee565b610b3e565b604051610256959493929190611a0f565b60405180910390f35b610279600480360381019061027491906116da565b610bbe565b005b6102956004803603810190610290919061152a565b610f36565b005b6102b160048036038101906102ac91906114c5565b610fc6565b005b6102cd60048036038101906102c891906115c3565b6110be565b6040516102de9594939291906119b5565b60405180910390f35b60011515600460003373ffffffffffffffffffffffffffffffffffffffff1673ffffffffffffffffffffffffffffffffffffffff168152602001908152602001600020600086815260200190815260200160002060009054906101000a900460ff1615151461038b576040517f08c379a00000000000000000000000000000000000000000000000000000000081526004016103829061197a565b60405180910390fd5b60011515600860008573ffffffffffffffffffffffffffffffffffffffff1673ffffffffffffffffffffffffffffffffffffffff1681526020019081526020016000208381548110610406577f4e487b7100000000000000000000000000000000000000000000000000000000600052603260045260246000fd5b906000526020600020906005020160040160149054906101000a900460ff16151514610467576040517f08c379a000000000000000000000000000000000000000000000000000000000815260040161045e9061191a565b60405180910390fd5b600860008473ffffffffffffffffffffffffffffffffffffffff1673ffffffffffffffffffffffffffffffffffffffff16815260200190815260200160002082815481106104de577f4e487b7100000000000000000000000000000000000000000000000000000000600052603260045260246000fd5b9060005260206000209060050201600101544211156104fc57600080fd5b600860008473ffffffffffffffffffffffffffffffffffffffff1673ffffffffffffffffffffffffffffffffffffffff1681526020019081526020016000208281548110610573577f4e487b7100000000000000000000000000000000000000000000000000000000600052603260045260246000fd5b906000526020600020906005020160030181815481106105bc577f4e487b7100000000000000000000000000000000000000000000000000000000600052603260045260246000fd5b906000526020600020906020918282040191900681819054906101000a900460ff16809291906105eb90611c21565b91906101000a81548160ff021916908360ff16021790555050600860008473ffffffffffffffffffffffffffffffffffffffff1673ffffffffffffffffffffffffffffffffffffffff168152602001908152602001600020828154811061067b577f4e487b7100000000000000000000000000000000000000000000000000000000600052603260045260246000fd5b9060005260206000209060050201600201600081548092919061069d90611bd8565b91905055506005600085815260200190815260200160002060003373ffffffffffffffffffffffffffffffffffffffff1673ffffffffffffffffffffffffffffffffffffffff168152602001908152602001600020600081548092919061070390611bd8565b919050555050505050565b60076020528060005260406000206000915090505481565b6000600360006002548152602001908152602001600020600101541461074b57600080fd5b600073ffffffffffffffffffffffffffffffffffffffff168173ffffffffffffffffffffffffffffffffffffffff16141561078557600080fd5b6040518060a0016040528042815260200160025481526020018273ffffffffffffffffffffffffffffffffffffffff16815260200183815260200160011515815250600360006002548152602001908152602001600020600082015181600001556020820151816001015560408201518160020160006101000a81548173ffffffffffffffffffffffffffffffffffffffff021916908373ffffffffffffffffffffffffffffffffffffffff1602179055506060820151816003019080519060200190610853929190611275565b5060808201518160040160006101000a81548160ff0219169083151502179055509050506002600081548092919061088a90611bd8565b9190505550600960008154809291906108a290611bd8565b91905055505050565b6005602052816000526040600020602052806000526040600020600091509150505481565b60066020528060005260406000206000915090505481565b6108f06111a9565b73ffffffffffffffffffffffffffffffffffffffff1661090e610b15565b73ffffffffffffffffffffffffffffffffffffffff1614610964576040517f08c379a000000000000000000000000000000000000000000000000000000000815260040161095b9061193a565b60405180910390fd5b61096e60006111b1565b565b60046020528160005260406000206020528060005260406000206000915091509054906101000a900460ff1681565b600a600082815260200190815260200160002060009054906101000a900460ff166109c957600080fd5b60001515600460008473ffffffffffffffffffffffffffffffffffffffff1673ffffffffffffffffffffffffffffffffffffffff168152602001908152602001600020600085815260200190815260200160002060009054906101000a900460ff16151514610a6d576040517f08c379a0000000000000000000000000000000000000000000000000000000008152600401610a64906118ba565b60405180910390fd5b600073ffffffffffffffffffffffffffffffffffffffff168273ffffffffffffffffffffffffffffffffffffffff161415610aa757600080fd5b6001600460008473ffffffffffffffffffffffffffffffffffffffff1673ffffffffffffffffffffffffffffffffffffffff168152602001908152602001600020600085815260200190815260200160002060006101000a81548160ff021916908315150217905550505050565b60008060009054906101000a900473ffffffffffffffffffffffffffffffffffffffff16905090565b60086020528160005260406000208181548110610b5a57600080fd5b9060005260206000209060050201600091509150508060000154908060010154908060020154908060040160009054906101000a900473ffffffffffffffffffffffffffffffffffffffff16908060040160149054906101000a900460ff16905085565b3373ffffffffffffffffffffffffffffffffffffffff166003600085815260200190815260200160002060020160009054906101000a900473ffffffffffffffffffffffffffffffffffffffff1673ffffffffffffffffffffffffffffffffffffffff1614610c62576040517f08c379a0000000000000000000000000000000000000000000000000000000008152600401610c59906118fa565b60405180910390fd5b814210610ca4576040517f08c379a0000000000000000000000000000000000000000000000000000000008152600401610c9b9061195a565b60405180910390fd5b60008160ff1667ffffffffffffffff811115610ce9577f4e487b7100000000000000000000000000000000000000000000000000000000600052604160045260246000fd5b604051908082528060200260200182016040528015610d175781602001602082028036833780820191505090505b50905060005b8260ff16811015610d8a576000828281518110610d63577f4e487b7100000000000000000000000000000000000000000000000000000000600052603260045260246000fd5b602002602001019060ff16908160ff16815250508080610d8290611bd8565b915050610d1d565b50600860003373ffffffffffffffffffffffffffffffffffffffff1673ffffffffffffffffffffffffffffffffffffffff1681526020019081526020016000206040518060c00160405280428152602001858152602001600081526020018381526020013373ffffffffffffffffffffffffffffffffffffffff1681526020016001151581525090806001815401808255809150506001900390600052602060002090600502016000909190919091506000820151816000015560208201518160010155604082015181600201556060820151816003019080519060200190610e749291906112fb565b5060808201518160040160006101000a81548173ffffffffffffffffffffffffffffffffffffffff021916908373ffffffffffffffffffffffffffffffffffffffff16021790555060a08201518160040160146101000a81548160ff0219169083151502179055505050600660008581526020019081526020016000206000815480929190610f0290611bd8565b9190505550600760008581526020019081526020016000206000815480929190610f2b90611bd8565b919050555050505050565b60005b828290508111610fc1576001600a6000858585818110610f82577f4e487b7100000000000000000000000000000000000000000000000000000000600052603260045260246000fd5b90506020020135815260200190815260200160002060006101000a81548160ff0219169083151502179055508080610fb990611bd8565b915050610f39565b505050565b610fce6111a9565b73ffffffffffffffffffffffffffffffffffffffff16610fec610b15565b73ffffffffffffffffffffffffffffffffffffffff1614611042576040517f08c379a00000000000000000000000000000000000000000000000000000000081526004016110399061193a565b60405180910390fd5b600073ffffffffffffffffffffffffffffffffffffffff168173ffffffffffffffffffffffffffffffffffffffff1614156110b2576040517f08c379a00000000000000000000000000000000000000000000000000000000081526004016110a9906118da565b60405180910390fd5b6110bb816111b1565b50565b60036020528060005260406000206000915090508060000154908060010154908060020160009054906101000a900473ffffffffffffffffffffffffffffffffffffffff169080600301805461111390611b75565b80601f016020809104026020016040519081016040528092919081815260200182805461113f90611b75565b801561118c5780601f106111615761010080835404028352916020019161118c565b820191906000526020600020905b81548152906001019060200180831161116f57829003601f168201915b5050505050908060040160009054906101000a900460ff16905085565b600033905090565b60008060009054906101000a900473ffffffffffffffffffffffffffffffffffffffff169050816000806101000a81548173ffffffffffffffffffffffffffffffffffffffff021916908373ffffffffffffffffffffffffffffffffffffffff1602179055508173ffffffffffffffffffffffffffffffffffffffff168173ffffffffffffffffffffffffffffffffffffffff167f8be0079c531659141344cd1fd0a4f28419497f9722a3daafe3b4186f6b6457e060405160405180910390a35050565b82805461128190611b75565b90600052602060002090601f0160209004810192826112a357600085556112ea565b82601f106112bc57805160ff19168380011785556112ea565b828001600101855582156112ea579182015b828111156112e95782518255916020019190600101906112ce565b5b5090506112f791906113a2565b5090565b82805482825590600052602060002090601f016020900481019282156113915791602002820160005b8382111561136257835183826101000a81548160ff021916908360ff1602179055509260200192600101602081600001049283019260010302611324565b801561138f5782816101000a81549060ff0219169055600101602081600001049283019260010302611362565b505b50905061139e91906113a2565b5090565b5b808211156113bb5760008160009055506001016113a3565b5090565b60006113d26113cd84611a87565b611a62565b9050828152602081018484840111156113ea57600080fd5b6113f5848285611b33565b509392505050565b60008135905061140c81611e2e565b92915050565b60008083601f84011261142457600080fd5b8235905067ffffffffffffffff81111561143d57600080fd5b60208301915083602082028301111561145557600080fd5b9250929050565b60008135905061146b81611e45565b92915050565b600082601f83011261148257600080fd5b81356114928482602086016113bf565b91505092915050565b6000813590506114aa81611e5c565b92915050565b6000813590506114bf81611e73565b92915050565b6000602082840312156114d757600080fd5b60006114e5848285016113fd565b91505092915050565b6000806040838503121561150157600080fd5b600061150f858286016113fd565b92505060206115208582860161149b565b9150509250929050565b6000806020838503121561153d57600080fd5b600083013567ffffffffffffffff81111561155757600080fd5b61156385828601611412565b92509250509250929050565b6000806040838503121561158257600080fd5b600083013567ffffffffffffffff81111561159c57600080fd5b6115a885828601611471565b92505060206115b9858286016113fd565b9150509250929050565b6000602082840312156115d557600080fd5b60006115e38482850161149b565b91505092915050565b600080604083850312156115ff57600080fd5b600061160d8582860161149b565b925050602061161e858286016113fd565b9150509250929050565b60008060006060848603121561163d57600080fd5b600061164b8682870161149b565b935050602061165c868287016113fd565b925050604061166d8682870161145c565b9150509250925092565b6000806000806080858703121561168d57600080fd5b600061169b8782880161149b565b94505060206116ac878288016113fd565b93505060406116bd8782880161149b565b92505060606116ce8782880161149b565b91505092959194509250565b6000806000606084860312156116ef57600080fd5b60006116fd8682870161149b565b935050602061170e8682870161149b565b925050604061171f868287016114b0565b9150509250925092565b61173281611ad4565b82525050565b61174181611ae6565b82525050565b600061175282611ab8565b61175c8185611ac3565b935061176c818560208601611b42565b61177581611cd8565b840191505092915050565b600061178d601083611ac3565b915061179882611ce9565b602082019050919050565b60006117b0602683611ac3565b91506117bb82611d12565b604082019050919050565b60006117d3600f83611ac3565b91506117de82611d61565b602082019050919050565b60006117f6600983611ac3565b915061180182611d8a565b602082019050919050565b6000611819602083611ac3565b915061182482611db3565b602082019050919050565b600061183c600583611ac3565b915061184782611ddc565b602082019050919050565b600061185f600983611ac3565b915061186a82611e05565b602082019050919050565b61187e81611b1c565b82525050565b60006020820190506118996000830184611729565b92915050565b60006020820190506118b46000830184611738565b92915050565b600060208201905081810360008301526118d381611780565b9050919050565b600060208201905081810360008301526118f3816117a3565b9050919050565b60006020820190508181036000830152611913816117c6565b9050919050565b60006020820190508181036000830152611933816117e9565b9050919050565b600060208201905081810360008301526119538161180c565b9050919050565b600060208201905081810360008301526119738161182f565b9050919050565b6000602082019050818103600083015261199381611852565b9050919050565b60006020820190506119af6000830184611875565b92915050565b600060a0820190506119ca6000830188611875565b6119d76020830187611875565b6119e46040830186611729565b81810360608301526119f68185611747565b9050611a056080830184611738565b9695505050505050565b600060a082019050611a246000830188611875565b611a316020830187611875565b611a3e6040830186611875565b611a4b6060830185611729565b611a586080830184611738565b9695505050505050565b6000611a6c611a7d565b9050611a788282611ba7565b919050565b6000604051905090565b600067ffffffffffffffff821115611aa257611aa1611ca9565b5b611aab82611cd8565b9050602081019050919050565b600081519050919050565b600082825260208201905092915050565b6000611adf82611afc565b9050919050565b60008115159050919050565b6000819050919050565b600073ffffffffffffffffffffffffffffffffffffffff82169050919050565b6000819050919050565b600060ff82169050919050565b82818337600083830152505050565b60005b83811015611b60578082015181840152602081019050611b45565b83811115611b6f576000848401525b50505050565b60006002820490506001821680611b8d57607f821691505b60208210811415611ba157611ba0611c7a565b5b50919050565b611bb082611cd8565b810181811067ffffffffffffffff82111715611bcf57611bce611ca9565b5b80604052505050565b6000611be382611b1c565b91507fffffffffffffffffffffffffffffffffffffffffffffffffffffffffffffffff821415611c1657611c15611c4b565b5b600182019050919050565b6000611c2c82611b26565b915060ff821415611c4057611c3f611c4b565b5b600182019050919050565b7f4e487b7100000000000000000000000000000000000000000000000000000000600052601160045260246000fd5b7f4e487b7100000000000000000000000000000000000000000000000000000000600052602260045260246000fd5b7f4e487b7100000000000000000000000000000000000000000000000000000000600052604160045260246000fd5b6000601f19601f8301169050919050565b7f616c726561647920656d706c6f79656500000000000000000000000000000000600082015250565b7f4f776e61626c653a206e6577206f776e657220697320746865207a65726f206160008201527f6464726573730000000000000000000000000000000000000000000000000000602082015250565b7f6f6e6c7920617574686f72697a65640000000000000000000000000000000000600082015250565b7f21646561644c696e650000000000000000000000000000000000000000000000600082015250565b7f4f776e61626c653a2063616c6c6572206973206e6f7420746865206f776e6572600082015250565b7f2174696d65000000000000000000000000000000000000000000000000000000600082015250565b7f21656d706c6f7965650000000000000000000000000000000000000000000000600082015250565b611e3781611ad4565b8114611e4257600080fd5b50565b611e4e81611af2565b8114611e5957600080fd5b50565b611e6581611b1c565b8114611e7057600080fd5b50565b611e7c81611b26565b8114611e8757600080fd5b5056fea264697066735822122072a5a15024323ea6f18d30b42ab019ed960af823a8f0139f1e1bbf06e79ac37864736f6c63430008040033",
          "opcodes": "PUSH1 0x80 PUSH1 0x40 MSTORE PUSH1 0x1 PUSH1 0x2 SSTORE CALLVALUE DUP1 ISZERO PUSH2 0x15 JUMPI PUSH1 0x0 DUP1 REVERT JUMPDEST POP PUSH2 0x32 PUSH2 0x27 PUSH2 0x3E PUSH1 0x20 SHL PUSH1 0x20 SHR JUMP JUMPDEST PUSH2 0x46 PUSH1 0x20 SHL PUSH1 0x20 SHR JUMP JUMPDEST PUSH1 0x1 DUP1 DUP2 SWAP1 SSTORE POP PUSH2 0x10A JUMP JUMPDEST PUSH1 0x0 CALLER SWAP1 POP SWAP1 JUMP JUMPDEST PUSH1 0x0 DUP1 PUSH1 0x0 SWAP1 SLOAD SWAP1 PUSH2 0x100 EXP SWAP1 DIV PUSH20 0xFFFFFFFFFFFFFFFFFFFFFFFFFFFFFFFFFFFFFFFF AND SWAP1 POP DUP2 PUSH1 0x0 DUP1 PUSH2 0x100 EXP DUP2 SLOAD DUP2 PUSH20 0xFFFFFFFFFFFFFFFFFFFFFFFFFFFFFFFFFFFFFFFF MUL NOT AND SWAP1 DUP4 PUSH20 0xFFFFFFFFFFFFFFFFFFFFFFFFFFFFFFFFFFFFFFFF AND MUL OR SWAP1 SSTORE POP DUP2 PUSH20 0xFFFFFFFFFFFFFFFFFFFFFFFFFFFFFFFFFFFFFFFF AND DUP2 PUSH20 0xFFFFFFFFFFFFFFFFFFFFFFFFFFFFFFFFFFFFFFFF AND PUSH32 0x8BE0079C531659141344CD1FD0A4F28419497F9722A3DAAFE3B4186F6B6457E0 PUSH1 0x40 MLOAD PUSH1 0x40 MLOAD DUP1 SWAP2 SUB SWAP1 LOG3 POP POP JUMP JUMPDEST PUSH2 0x1EC0 DUP1 PUSH2 0x119 PUSH1 0x0 CODECOPY PUSH1 0x0 RETURN INVALID PUSH1 0x80 PUSH1 0x40 MSTORE CALLVALUE DUP1 ISZERO PUSH2 0x10 JUMPI PUSH1 0x0 DUP1 REVERT JUMPDEST POP PUSH1 0x4 CALLDATASIZE LT PUSH2 0xEA JUMPI PUSH1 0x0 CALLDATALOAD PUSH1 0xE0 SHR DUP1 PUSH4 0x8565C7FE GT PUSH2 0x8C JUMPI DUP1 PUSH4 0xC9EC2374 GT PUSH2 0x66 JUMPI DUP1 PUSH4 0xC9EC2374 EQ PUSH2 0x25F JUMPI DUP1 PUSH4 0xEBAA97F7 EQ PUSH2 0x27B JUMPI DUP1 PUSH4 0xF2FDE38B EQ PUSH2 0x297 JUMPI DUP1 PUSH4 0xFAD4B284 EQ PUSH2 0x2B3 JUMPI PUSH2 0xEA JUMP JUMPDEST DUP1 PUSH4 0x8565C7FE EQ PUSH2 0x1F1 JUMPI DUP1 PUSH4 0x8DA5CB5B EQ PUSH2 0x20D JUMPI DUP1 PUSH4 0xC0026399 EQ PUSH2 0x22B JUMPI PUSH2 0xEA JUMP JUMPDEST DUP1 PUSH4 0x51850FFC GT PUSH2 0xC8 JUMPI DUP1 PUSH4 0x51850FFC EQ PUSH2 0x157 JUMPI DUP1 PUSH4 0x5289E6AD EQ PUSH2 0x187 JUMPI DUP1 PUSH4 0x715018A6 EQ PUSH2 0x1B7 JUMPI DUP1 PUSH4 0x828E2DC6 EQ PUSH2 0x1C1 JUMPI PUSH2 0xEA JUMP JUMPDEST DUP1 PUSH4 0x8EC1FEE EQ PUSH2 0xEF JUMPI DUP1 PUSH4 0xA17ADDD EQ PUSH2 0x10B JUMPI DUP1 PUSH4 0x2FD8B4AF EQ PUSH2 0x13B JUMPI JUMPDEST PUSH1 0x0 DUP1 REVERT JUMPDEST PUSH2 0x109 PUSH1 0x4 DUP1 CALLDATASIZE SUB DUP2 ADD SWAP1 PUSH2 0x104 SWAP2 SWAP1 PUSH2 0x1677 JUMP JUMPDEST PUSH2 0x2E7 JUMP JUMPDEST STOP JUMPDEST PUSH2 0x125 PUSH1 0x4 DUP1 CALLDATASIZE SUB DUP2 ADD SWAP1 PUSH2 0x120 SWAP2 SWAP1 PUSH2 0x15C3 JUMP JUMPDEST PUSH2 0x70E JUMP JUMPDEST PUSH1 0x40 MLOAD PUSH2 0x132 SWAP2 SWAP1 PUSH2 0x199A JUMP JUMPDEST PUSH1 0x40 MLOAD DUP1 SWAP2 SUB SWAP1 RETURN JUMPDEST PUSH2 0x155 PUSH1 0x4 DUP1 CALLDATASIZE SUB DUP2 ADD SWAP1 PUSH2 0x150 SWAP2 SWAP1 PUSH2 0x156F JUMP JUMPDEST PUSH2 0x726 JUMP JUMPDEST STOP JUMPDEST PUSH2 0x171 PUSH1 0x4 DUP1 CALLDATASIZE SUB DUP2 ADD SWAP1 PUSH2 0x16C SWAP2 SWAP1 PUSH2 0x15EC JUMP JUMPDEST PUSH2 0x8AB JUMP JUMPDEST PUSH1 0x40 MLOAD PUSH2 0x17E SWAP2 SWAP1 PUSH2 0x199A JUMP JUMPDEST PUSH1 0x40 MLOAD DUP1 SWAP2 SUB SWAP1 RETURN JUMPDEST PUSH2 0x1A1 PUSH1 0x4 DUP1 CALLDATASIZE SUB DUP2 ADD SWAP1 PUSH2 0x19C SWAP2 SWAP1 PUSH2 0x15C3 JUMP JUMPDEST PUSH2 0x8D0 JUMP JUMPDEST PUSH1 0x40 MLOAD PUSH2 0x1AE SWAP2 SWAP1 PUSH2 0x199A JUMP JUMPDEST PUSH1 0x40 MLOAD DUP1 SWAP2 SUB SWAP1 RETURN JUMPDEST PUSH2 0x1BF PUSH2 0x8E8 JUMP JUMPDEST STOP JUMPDEST PUSH2 0x1DB PUSH1 0x4 DUP1 CALLDATASIZE SUB DUP2 ADD SWAP1 PUSH2 0x1D6 SWAP2 SWAP1 PUSH2 0x14EE JUMP JUMPDEST PUSH2 0x970 JUMP JUMPDEST PUSH1 0x40 MLOAD PUSH2 0x1E8 SWAP2 SWAP1 PUSH2 0x189F JUMP JUMPDEST PUSH1 0x40 MLOAD DUP1 SWAP2 SUB SWAP1 RETURN JUMPDEST PUSH2 0x20B PUSH1 0x4 DUP1 CALLDATASIZE SUB DUP2 ADD SWAP1 PUSH2 0x206 SWAP2 SWAP1 PUSH2 0x1628 JUMP JUMPDEST PUSH2 0x99F JUMP JUMPDEST STOP JUMPDEST PUSH2 0x215 PUSH2 0xB15 JUMP JUMPDEST PUSH1 0x40 MLOAD PUSH2 0x222 SWAP2 SWAP1 PUSH2 0x1884 JUMP JUMPDEST PUSH1 0x40 MLOAD DUP1 SWAP2 SUB SWAP1 RETURN JUMPDEST PUSH2 0x245 PUSH1 0x4 DUP1 CALLDATASIZE SUB DUP2 ADD SWAP1 PUSH2 0x240 SWAP2 SWAP1 PUSH2 0x14EE JUMP JUMPDEST PUSH2 0xB3E JUMP JUMPDEST PUSH1 0x40 MLOAD PUSH2 0x256 SWAP6 SWAP5 SWAP4 SWAP3 SWAP2 SWAP1 PUSH2 0x1A0F JUMP JUMPDEST PUSH1 0x40 MLOAD DUP1 SWAP2 SUB SWAP1 RETURN JUMPDEST PUSH2 0x279 PUSH1 0x4 DUP1 CALLDATASIZE SUB DUP2 ADD SWAP1 PUSH2 0x274 SWAP2 SWAP1 PUSH2 0x16DA JUMP JUMPDEST PUSH2 0xBBE JUMP JUMPDEST STOP JUMPDEST PUSH2 0x295 PUSH1 0x4 DUP1 CALLDATASIZE SUB DUP2 ADD SWAP1 PUSH2 0x290 SWAP2 SWAP1 PUSH2 0x152A JUMP JUMPDEST PUSH2 0xF36 JUMP JUMPDEST STOP JUMPDEST PUSH2 0x2B1 PUSH1 0x4 DUP1 CALLDATASIZE SUB DUP2 ADD SWAP1 PUSH2 0x2AC SWAP2 SWAP1 PUSH2 0x14C5 JUMP JUMPDEST PUSH2 0xFC6 JUMP JUMPDEST STOP JUMPDEST PUSH2 0x2CD PUSH1 0x4 DUP1 CALLDATASIZE SUB DUP2 ADD SWAP1 PUSH2 0x2C8 SWAP2 SWAP1 PUSH2 0x15C3 JUMP JUMPDEST PUSH2 0x10BE JUMP JUMPDEST PUSH1 0x40 MLOAD PUSH2 0x2DE SWAP6 SWAP5 SWAP4 SWAP3 SWAP2 SWAP1 PUSH2 0x19B5 JUMP JUMPDEST PUSH1 0x40 MLOAD DUP1 SWAP2 SUB SWAP1 RETURN JUMPDEST PUSH1 0x1 ISZERO ISZERO PUSH1 0x4 PUSH1 0x0 CALLER PUSH20 0xFFFFFFFFFFFFFFFFFFFFFFFFFFFFFFFFFFFFFFFF AND PUSH20 0xFFFFFFFFFFFFFFFFFFFFFFFFFFFFFFFFFFFFFFFF AND DUP2 MSTORE PUSH1 0x20 ADD SWAP1 DUP2 MSTORE PUSH1 0x20 ADD PUSH1 0x0 KECCAK256 PUSH1 0x0 DUP7 DUP2 MSTORE PUSH1 0x20 ADD SWAP1 DUP2 MSTORE PUSH1 0x20 ADD PUSH1 0x0 KECCAK256 PUSH1 0x0 SWAP1 SLOAD SWAP1 PUSH2 0x100 EXP SWAP1 DIV PUSH1 0xFF AND ISZERO ISZERO EQ PUSH2 0x38B JUMPI PUSH1 0x40 MLOAD PUSH32 0x8C379A000000000000000000000000000000000000000000000000000000000 DUP2 MSTORE PUSH1 0x4 ADD PUSH2 0x382 SWAP1 PUSH2 0x197A JUMP JUMPDEST PUSH1 0x40 MLOAD DUP1 SWAP2 SUB SWAP1 REVERT JUMPDEST PUSH1 0x1 ISZERO ISZERO PUSH1 0x8 PUSH1 0x0 DUP6 PUSH20 0xFFFFFFFFFFFFFFFFFFFFFFFFFFFFFFFFFFFFFFFF AND PUSH20 0xFFFFFFFFFFFFFFFFFFFFFFFFFFFFFFFFFFFFFFFF AND DUP2 MSTORE PUSH1 0x20 ADD SWAP1 DUP2 MSTORE PUSH1 0x20 ADD PUSH1 0x0 KECCAK256 DUP4 DUP2 SLOAD DUP2 LT PUSH2 0x406 JUMPI PUSH32 0x4E487B7100000000000000000000000000000000000000000000000000000000 PUSH1 0x0 MSTORE PUSH1 0x32 PUSH1 0x4 MSTORE PUSH1 0x24 PUSH1 0x0 REVERT JUMPDEST SWAP1 PUSH1 0x0 MSTORE PUSH1 0x20 PUSH1 0x0 KECCAK256 SWAP1 PUSH1 0x5 MUL ADD PUSH1 0x4 ADD PUSH1 0x14 SWAP1 SLOAD SWAP1 PUSH2 0x100 EXP SWAP1 DIV PUSH1 0xFF AND ISZERO ISZERO EQ PUSH2 0x467 JUMPI PUSH1 0x40 MLOAD PUSH32 0x8C379A000000000000000000000000000000000000000000000000000000000 DUP2 MSTORE PUSH1 0x4 ADD PUSH2 0x45E SWAP1 PUSH2 0x191A JUMP JUMPDEST PUSH1 0x40 MLOAD DUP1 SWAP2 SUB SWAP1 REVERT JUMPDEST PUSH1 0x8 PUSH1 0x0 DUP5 PUSH20 0xFFFFFFFFFFFFFFFFFFFFFFFFFFFFFFFFFFFFFFFF AND PUSH20 0xFFFFFFFFFFFFFFFFFFFFFFFFFFFFFFFFFFFFFFFF AND DUP2 MSTORE PUSH1 0x20 ADD SWAP1 DUP2 MSTORE PUSH1 0x20 ADD PUSH1 0x0 KECCAK256 DUP3 DUP2 SLOAD DUP2 LT PUSH2 0x4DE JUMPI PUSH32 0x4E487B7100000000000000000000000000000000000000000000000000000000 PUSH1 0x0 MSTORE PUSH1 0x32 PUSH1 0x4 MSTORE PUSH1 0x24 PUSH1 0x0 REVERT JUMPDEST SWAP1 PUSH1 0x0 MSTORE PUSH1 0x20 PUSH1 0x0 KECCAK256 SWAP1 PUSH1 0x5 MUL ADD PUSH1 0x1 ADD SLOAD TIMESTAMP GT ISZERO PUSH2 0x4FC JUMPI PUSH1 0x0 DUP1 REVERT JUMPDEST PUSH1 0x8 PUSH1 0x0 DUP5 PUSH20 0xFFFFFFFFFFFFFFFFFFFFFFFFFFFFFFFFFFFFFFFF AND PUSH20 0xFFFFFFFFFFFFFFFFFFFFFFFFFFFFFFFFFFFFFFFF AND DUP2 MSTORE PUSH1 0x20 ADD SWAP1 DUP2 MSTORE PUSH1 0x20 ADD PUSH1 0x0 KECCAK256 DUP3 DUP2 SLOAD DUP2 LT PUSH2 0x573 JUMPI PUSH32 0x4E487B7100000000000000000000000000000000000000000000000000000000 PUSH1 0x0 MSTORE PUSH1 0x32 PUSH1 0x4 MSTORE PUSH1 0x24 PUSH1 0x0 REVERT JUMPDEST SWAP1 PUSH1 0x0 MSTORE PUSH1 0x20 PUSH1 0x0 KECCAK256 SWAP1 PUSH1 0x5 MUL ADD PUSH1 0x3 ADD DUP2 DUP2 SLOAD DUP2 LT PUSH2 0x5BC JUMPI PUSH32 0x4E487B7100000000000000000000000000000000000000000000000000000000 PUSH1 0x0 MSTORE PUSH1 0x32 PUSH1 0x4 MSTORE PUSH1 0x24 PUSH1 0x0 REVERT JUMPDEST SWAP1 PUSH1 0x0 MSTORE PUSH1 0x20 PUSH1 0x0 KECCAK256 SWAP1 PUSH1 0x20 SWAP2 DUP3 DUP3 DIV ADD SWAP2 SWAP1 MOD DUP2 DUP2 SWAP1 SLOAD SWAP1 PUSH2 0x100 EXP SWAP1 DIV PUSH1 0xFF AND DUP1 SWAP3 SWAP2 SWAP1 PUSH2 0x5EB SWAP1 PUSH2 0x1C21 JUMP JUMPDEST SWAP2 SWAP1 PUSH2 0x100 EXP DUP2 SLOAD DUP2 PUSH1 0xFF MUL NOT AND SWAP1 DUP4 PUSH1 0xFF AND MUL OR SWAP1 SSTORE POP POP PUSH1 0x8 PUSH1 0x0 DUP5 PUSH20 0xFFFFFFFFFFFFFFFFFFFFFFFFFFFFFFFFFFFFFFFF AND PUSH20 0xFFFFFFFFFFFFFFFFFFFFFFFFFFFFFFFFFFFFFFFF AND DUP2 MSTORE PUSH1 0x20 ADD SWAP1 DUP2 MSTORE PUSH1 0x20 ADD PUSH1 0x0 KECCAK256 DUP3 DUP2 SLOAD DUP2 LT PUSH2 0x67B JUMPI PUSH32 0x4E487B7100000000000000000000000000000000000000000000000000000000 PUSH1 0x0 MSTORE PUSH1 0x32 PUSH1 0x4 MSTORE PUSH1 0x24 PUSH1 0x0 REVERT JUMPDEST SWAP1 PUSH1 0x0 MSTORE PUSH1 0x20 PUSH1 0x0 KECCAK256 SWAP1 PUSH1 0x5 MUL ADD PUSH1 0x2 ADD PUSH1 0x0 DUP2 SLOAD DUP1 SWAP3 SWAP2 SWAP1 PUSH2 0x69D SWAP1 PUSH2 0x1BD8 JUMP JUMPDEST SWAP2 SWAP1 POP SSTORE POP PUSH1 0x5 PUSH1 0x0 DUP6 DUP2 MSTORE PUSH1 0x20 ADD SWAP1 DUP2 MSTORE PUSH1 0x20 ADD PUSH1 0x0 KECCAK256 PUSH1 0x0 CALLER PUSH20 0xFFFFFFFFFFFFFFFFFFFFFFFFFFFFFFFFFFFFFFFF AND PUSH20 0xFFFFFFFFFFFFFFFFFFFFFFFFFFFFFFFFFFFFFFFF AND DUP2 MSTORE PUSH1 0x20 ADD SWAP1 DUP2 MSTORE PUSH1 0x20 ADD PUSH1 0x0 KECCAK256 PUSH1 0x0 DUP2 SLOAD DUP1 SWAP3 SWAP2 SWAP1 PUSH2 0x703 SWAP1 PUSH2 0x1BD8 JUMP JUMPDEST SWAP2 SWAP1 POP SSTORE POP POP POP POP POP JUMP JUMPDEST PUSH1 0x7 PUSH1 0x20 MSTORE DUP1 PUSH1 0x0 MSTORE PUSH1 0x40 PUSH1 0x0 KECCAK256 PUSH1 0x0 SWAP2 POP SWAP1 POP SLOAD DUP2 JUMP JUMPDEST PUSH1 0x0 PUSH1 0x3 PUSH1 0x0 PUSH1 0x2 SLOAD DUP2 MSTORE PUSH1 0x20 ADD SWAP1 DUP2 MSTORE PUSH1 0x20 ADD PUSH1 0x0 KECCAK256 PUSH1 0x1 ADD SLOAD EQ PUSH2 0x74B JUMPI PUSH1 0x0 DUP1 REVERT JUMPDEST PUSH1 0x0 PUSH20 0xFFFFFFFFFFFFFFFFFFFFFFFFFFFFFFFFFFFFFFFF AND DUP2 PUSH20 0xFFFFFFFFFFFFFFFFFFFFFFFFFFFFFFFFFFFFFFFF AND EQ ISZERO PUSH2 0x785 JUMPI PUSH1 0x0 DUP1 REVERT JUMPDEST PUSH1 0x40 MLOAD DUP1 PUSH1 0xA0 ADD PUSH1 0x40 MSTORE DUP1 TIMESTAMP DUP2 MSTORE PUSH1 0x20 ADD PUSH1 0x2 SLOAD DUP2 MSTORE PUSH1 0x20 ADD DUP3 PUSH20 0xFFFFFFFFFFFFFFFFFFFFFFFFFFFFFFFFFFFFFFFF AND DUP2 MSTORE PUSH1 0x20 ADD DUP4 DUP2 MSTORE PUSH1 0x20 ADD PUSH1 0x1 ISZERO ISZERO DUP2 MSTORE POP PUSH1 0x3 PUSH1 0x0 PUSH1 0x2 SLOAD DUP2 MSTORE PUSH1 0x20 ADD SWAP1 DUP2 MSTORE PUSH1 0x20 ADD PUSH1 0x0 KECCAK256 PUSH1 0x0 DUP3 ADD MLOAD DUP2 PUSH1 0x0 ADD SSTORE PUSH1 0x20 DUP3 ADD MLOAD DUP2 PUSH1 0x1 ADD SSTORE PUSH1 0x40 DUP3 ADD MLOAD DUP2 PUSH1 0x2 ADD PUSH1 0x0 PUSH2 0x100 EXP DUP2 SLOAD DUP2 PUSH20 0xFFFFFFFFFFFFFFFFFFFFFFFFFFFFFFFFFFFFFFFF MUL NOT AND SWAP1 DUP4 PUSH20 0xFFFFFFFFFFFFFFFFFFFFFFFFFFFFFFFFFFFFFFFF AND MUL OR SWAP1 SSTORE POP PUSH1 0x60 DUP3 ADD MLOAD DUP2 PUSH1 0x3 ADD SWAP1 DUP1 MLOAD SWAP1 PUSH1 0x20 ADD SWAP1 PUSH2 0x853 SWAP3 SWAP2 SWAP1 PUSH2 0x1275 JUMP JUMPDEST POP PUSH1 0x80 DUP3 ADD MLOAD DUP2 PUSH1 0x4 ADD PUSH1 0x0 PUSH2 0x100 EXP DUP2 SLOAD DUP2 PUSH1 0xFF MUL NOT AND SWAP1 DUP4 ISZERO ISZERO MUL OR SWAP1 SSTORE POP SWAP1 POP POP PUSH1 0x2 PUSH1 0x0 DUP2 SLOAD DUP1 SWAP3 SWAP2 SWAP1 PUSH2 0x88A SWAP1 PUSH2 0x1BD8 JUMP JUMPDEST SWAP2 SWAP1 POP SSTORE POP PUSH1 0x9 PUSH1 0x0 DUP2 SLOAD DUP1 SWAP3 SWAP2 SWAP1 PUSH2 0x8A2 SWAP1 PUSH2 0x1BD8 JUMP JUMPDEST SWAP2 SWAP1 POP SSTORE POP POP POP JUMP JUMPDEST PUSH1 0x5 PUSH1 0x20 MSTORE DUP2 PUSH1 0x0 MSTORE PUSH1 0x40 PUSH1 0x0 KECCAK256 PUSH1 0x20 MSTORE DUP1 PUSH1 0x0 MSTORE PUSH1 0x40 PUSH1 0x0 KECCAK256 PUSH1 0x0 SWAP2 POP SWAP2 POP POP SLOAD DUP2 JUMP JUMPDEST PUSH1 0x6 PUSH1 0x20 MSTORE DUP1 PUSH1 0x0 MSTORE PUSH1 0x40 PUSH1 0x0 KECCAK256 PUSH1 0x0 SWAP2 POP SWAP1 POP SLOAD DUP2 JUMP JUMPDEST PUSH2 0x8F0 PUSH2 0x11A9 JUMP JUMPDEST PUSH20 0xFFFFFFFFFFFFFFFFFFFFFFFFFFFFFFFFFFFFFFFF AND PUSH2 0x90E PUSH2 0xB15 JUMP JUMPDEST PUSH20 0xFFFFFFFFFFFFFFFFFFFFFFFFFFFFFFFFFFFFFFFF AND EQ PUSH2 0x964 JUMPI PUSH1 0x40 MLOAD PUSH32 0x8C379A000000000000000000000000000000000000000000000000000000000 DUP2 MSTORE PUSH1 0x4 ADD PUSH2 0x95B SWAP1 PUSH2 0x193A JUMP JUMPDEST PUSH1 0x40 MLOAD DUP1 SWAP2 SUB SWAP1 REVERT JUMPDEST PUSH2 0x96E PUSH1 0x0 PUSH2 0x11B1 JUMP JUMPDEST JUMP JUMPDEST PUSH1 0x4 PUSH1 0x20 MSTORE DUP2 PUSH1 0x0 MSTORE PUSH1 0x40 PUSH1 0x0 KECCAK256 PUSH1 0x20 MSTORE DUP1 PUSH1 0x0 MSTORE PUSH1 0x40 PUSH1 0x0 KECCAK256 PUSH1 0x0 SWAP2 POP SWAP2 POP SWAP1 SLOAD SWAP1 PUSH2 0x100 EXP SWAP1 DIV PUSH1 0xFF AND DUP2 JUMP JUMPDEST PUSH1 0xA PUSH1 0x0 DUP3 DUP2 MSTORE PUSH1 0x20 ADD SWAP1 DUP2 MSTORE PUSH1 0x20 ADD PUSH1 0x0 KECCAK256 PUSH1 0x0 SWAP1 SLOAD SWAP1 PUSH2 0x100 EXP SWAP1 DIV PUSH1 0xFF AND PUSH2 0x9C9 JUMPI PUSH1 0x0 DUP1 REVERT JUMPDEST PUSH1 0x0 ISZERO ISZERO PUSH1 0x4 PUSH1 0x0 DUP5 PUSH20 0xFFFFFFFFFFFFFFFFFFFFFFFFFFFFFFFFFFFFFFFF AND PUSH20 0xFFFFFFFFFFFFFFFFFFFFFFFFFFFFFFFFFFFFFFFF AND DUP2 MSTORE PUSH1 0x20 ADD SWAP1 DUP2 MSTORE PUSH1 0x20 ADD PUSH1 0x0 KECCAK256 PUSH1 0x0 DUP6 DUP2 MSTORE PUSH1 0x20 ADD SWAP1 DUP2 MSTORE PUSH1 0x20 ADD PUSH1 0x0 KECCAK256 PUSH1 0x0 SWAP1 SLOAD SWAP1 PUSH2 0x100 EXP SWAP1 DIV PUSH1 0xFF AND ISZERO ISZERO EQ PUSH2 0xA6D JUMPI PUSH1 0x40 MLOAD PUSH32 0x8C379A000000000000000000000000000000000000000000000000000000000 DUP2 MSTORE PUSH1 0x4 ADD PUSH2 0xA64 SWAP1 PUSH2 0x18BA JUMP JUMPDEST PUSH1 0x40 MLOAD DUP1 SWAP2 SUB SWAP1 REVERT JUMPDEST PUSH1 0x0 PUSH20 0xFFFFFFFFFFFFFFFFFFFFFFFFFFFFFFFFFFFFFFFF AND DUP3 PUSH20 0xFFFFFFFFFFFFFFFFFFFFFFFFFFFFFFFFFFFFFFFF AND EQ ISZERO PUSH2 0xAA7 JUMPI PUSH1 0x0 DUP1 REVERT JUMPDEST PUSH1 0x1 PUSH1 0x4 PUSH1 0x0 DUP5 PUSH20 0xFFFFFFFFFFFFFFFFFFFFFFFFFFFFFFFFFFFFFFFF AND PUSH20 0xFFFFFFFFFFFFFFFFFFFFFFFFFFFFFFFFFFFFFFFF AND DUP2 MSTORE PUSH1 0x20 ADD SWAP1 DUP2 MSTORE PUSH1 0x20 ADD PUSH1 0x0 KECCAK256 PUSH1 0x0 DUP6 DUP2 MSTORE PUSH1 0x20 ADD SWAP1 DUP2 MSTORE PUSH1 0x20 ADD PUSH1 0x0 KECCAK256 PUSH1 0x0 PUSH2 0x100 EXP DUP2 SLOAD DUP2 PUSH1 0xFF MUL NOT AND SWAP1 DUP4 ISZERO ISZERO MUL OR SWAP1 SSTORE POP POP POP POP JUMP JUMPDEST PUSH1 0x0 DUP1 PUSH1 0x0 SWAP1 SLOAD SWAP1 PUSH2 0x100 EXP SWAP1 DIV PUSH20 0xFFFFFFFFFFFFFFFFFFFFFFFFFFFFFFFFFFFFFFFF AND SWAP1 POP SWAP1 JUMP JUMPDEST PUSH1 0x8 PUSH1 0x20 MSTORE DUP2 PUSH1 0x0 MSTORE PUSH1 0x40 PUSH1 0x0 KECCAK256 DUP2 DUP2 SLOAD DUP2 LT PUSH2 0xB5A JUMPI PUSH1 0x0 DUP1 REVERT JUMPDEST SWAP1 PUSH1 0x0 MSTORE PUSH1 0x20 PUSH1 0x0 KECCAK256 SWAP1 PUSH1 0x5 MUL ADD PUSH1 0x0 SWAP2 POP SWAP2 POP POP DUP1 PUSH1 0x0 ADD SLOAD SWAP1 DUP1 PUSH1 0x1 ADD SLOAD SWAP1 DUP1 PUSH1 0x2 ADD SLOAD SWAP1 DUP1 PUSH1 0x4 ADD PUSH1 0x0 SWAP1 SLOAD SWAP1 PUSH2 0x100 EXP SWAP1 DIV PUSH20 0xFFFFFFFFFFFFFFFFFFFFFFFFFFFFFFFFFFFFFFFF AND SWAP1 DUP1 PUSH1 0x4 ADD PUSH1 0x14 SWAP1 SLOAD SWAP1 PUSH2 0x100 EXP SWAP1 DIV PUSH1 0xFF AND SWAP1 POP DUP6 JUMP JUMPDEST CALLER PUSH20 0xFFFFFFFFFFFFFFFFFFFFFFFFFFFFFFFFFFFFFFFF AND PUSH1 0x3 PUSH1 0x0 DUP6 DUP2 MSTORE PUSH1 0x20 ADD SWAP1 DUP2 MSTORE PUSH1 0x20 ADD PUSH1 0x0 KECCAK256 PUSH1 0x2 ADD PUSH1 0x0 SWAP1 SLOAD SWAP1 PUSH2 0x100 EXP SWAP1 DIV PUSH20 0xFFFFFFFFFFFFFFFFFFFFFFFFFFFFFFFFFFFFFFFF AND PUSH20 0xFFFFFFFFFFFFFFFFFFFFFFFFFFFFFFFFFFFFFFFF AND EQ PUSH2 0xC62 JUMPI PUSH1 0x40 MLOAD PUSH32 0x8C379A000000000000000000000000000000000000000000000000000000000 DUP2 MSTORE PUSH1 0x4 ADD PUSH2 0xC59 SWAP1 PUSH2 0x18FA JUMP JUMPDEST PUSH1 0x40 MLOAD DUP1 SWAP2 SUB SWAP1 REVERT JUMPDEST DUP2 TIMESTAMP LT PUSH2 0xCA4 JUMPI PUSH1 0x40 MLOAD PUSH32 0x8C379A000000000000000000000000000000000000000000000000000000000 DUP2 MSTORE PUSH1 0x4 ADD PUSH2 0xC9B SWAP1 PUSH2 0x195A JUMP JUMPDEST PUSH1 0x40 MLOAD DUP1 SWAP2 SUB SWAP1 REVERT JUMPDEST PUSH1 0x0 DUP2 PUSH1 0xFF AND PUSH8 0xFFFFFFFFFFFFFFFF DUP2 GT ISZERO PUSH2 0xCE9 JUMPI PUSH32 0x4E487B7100000000000000000000000000000000000000000000000000000000 PUSH1 0x0 MSTORE PUSH1 0x41 PUSH1 0x4 MSTORE PUSH1 0x24 PUSH1 0x0 REVERT JUMPDEST PUSH1 0x40 MLOAD SWAP1 DUP1 DUP3 MSTORE DUP1 PUSH1 0x20 MUL PUSH1 0x20 ADD DUP3 ADD PUSH1 0x40 MSTORE DUP1 ISZERO PUSH2 0xD17 JUMPI DUP2 PUSH1 0x20 ADD PUSH1 0x20 DUP3 MUL DUP1 CALLDATASIZE DUP4 CALLDATACOPY DUP1 DUP3 ADD SWAP2 POP POP SWAP1 POP JUMPDEST POP SWAP1 POP PUSH1 0x0 JUMPDEST DUP3 PUSH1 0xFF AND DUP2 LT ISZERO PUSH2 0xD8A JUMPI PUSH1 0x0 DUP3 DUP3 DUP2 MLOAD DUP2 LT PUSH2 0xD63 JUMPI PUSH32 0x4E487B7100000000000000000000000000000000000000000000000000000000 PUSH1 0x0 MSTORE PUSH1 0x32 PUSH1 0x4 MSTORE PUSH1 0x24 PUSH1 0x0 REVERT JUMPDEST PUSH1 0x20 MUL PUSH1 0x20 ADD ADD SWAP1 PUSH1 0xFF AND SWAP1 DUP2 PUSH1 0xFF AND DUP2 MSTORE POP POP DUP1 DUP1 PUSH2 0xD82 SWAP1 PUSH2 0x1BD8 JUMP JUMPDEST SWAP2 POP POP PUSH2 0xD1D JUMP JUMPDEST POP PUSH1 0x8 PUSH1 0x0 CALLER PUSH20 0xFFFFFFFFFFFFFFFFFFFFFFFFFFFFFFFFFFFFFFFF AND PUSH20 0xFFFFFFFFFFFFFFFFFFFFFFFFFFFFFFFFFFFFFFFF AND DUP2 MSTORE PUSH1 0x20 ADD SWAP1 DUP2 MSTORE PUSH1 0x20 ADD PUSH1 0x0 KECCAK256 PUSH1 0x40 MLOAD DUP1 PUSH1 0xC0 ADD PUSH1 0x40 MSTORE DUP1 TIMESTAMP DUP2 MSTORE PUSH1 0x20 ADD DUP6 DUP2 MSTORE PUSH1 0x20 ADD PUSH1 0x0 DUP2 MSTORE PUSH1 0x20 ADD DUP4 DUP2 MSTORE PUSH1 0x20 ADD CALLER PUSH20 0xFFFFFFFFFFFFFFFFFFFFFFFFFFFFFFFFFFFFFFFF AND DUP2 MSTORE PUSH1 0x20 ADD PUSH1 0x1 ISZERO ISZERO DUP2 MSTORE POP SWAP1 DUP1 PUSH1 0x1 DUP2 SLOAD ADD DUP1 DUP3 SSTORE DUP1 SWAP2 POP POP PUSH1 0x1 SWAP1 SUB SWAP1 PUSH1 0x0 MSTORE PUSH1 0x20 PUSH1 0x0 KECCAK256 SWAP1 PUSH1 0x5 MUL ADD PUSH1 0x0 SWAP1 SWAP2 SWAP1 SWAP2 SWAP1 SWAP2 POP PUSH1 0x0 DUP3 ADD MLOAD DUP2 PUSH1 0x0 ADD SSTORE PUSH1 0x20 DUP3 ADD MLOAD DUP2 PUSH1 0x1 ADD SSTORE PUSH1 0x40 DUP3 ADD MLOAD DUP2 PUSH1 0x2 ADD SSTORE PUSH1 0x60 DUP3 ADD MLOAD DUP2 PUSH1 0x3 ADD SWAP1 DUP1 MLOAD SWAP1 PUSH1 0x20 ADD SWAP1 PUSH2 0xE74 SWAP3 SWAP2 SWAP1 PUSH2 0x12FB JUMP JUMPDEST POP PUSH1 0x80 DUP3 ADD MLOAD DUP2 PUSH1 0x4 ADD PUSH1 0x0 PUSH2 0x100 EXP DUP2 SLOAD DUP2 PUSH20 0xFFFFFFFFFFFFFFFFFFFFFFFFFFFFFFFFFFFFFFFF MUL NOT AND SWAP1 DUP4 PUSH20 0xFFFFFFFFFFFFFFFFFFFFFFFFFFFFFFFFFFFFFFFF AND MUL OR SWAP1 SSTORE POP PUSH1 0xA0 DUP3 ADD MLOAD DUP2 PUSH1 0x4 ADD PUSH1 0x14 PUSH2 0x100 EXP DUP2 SLOAD DUP2 PUSH1 0xFF MUL NOT AND SWAP1 DUP4 ISZERO ISZERO MUL OR SWAP1 SSTORE POP POP POP PUSH1 0x6 PUSH1 0x0 DUP6 DUP2 MSTORE PUSH1 0x20 ADD SWAP1 DUP2 MSTORE PUSH1 0x20 ADD PUSH1 0x0 KECCAK256 PUSH1 0x0 DUP2 SLOAD DUP1 SWAP3 SWAP2 SWAP1 PUSH2 0xF02 SWAP1 PUSH2 0x1BD8 JUMP JUMPDEST SWAP2 SWAP1 POP SSTORE POP PUSH1 0x7 PUSH1 0x0 DUP6 DUP2 MSTORE PUSH1 0x20 ADD SWAP1 DUP2 MSTORE PUSH1 0x20 ADD PUSH1 0x0 KECCAK256 PUSH1 0x0 DUP2 SLOAD DUP1 SWAP3 SWAP2 SWAP1 PUSH2 0xF2B SWAP1 PUSH2 0x1BD8 JUMP JUMPDEST SWAP2 SWAP1 POP SSTORE POP POP POP POP POP JUMP JUMPDEST PUSH1 0x0 JUMPDEST DUP3 DUP3 SWAP1 POP DUP2 GT PUSH2 0xFC1 JUMPI PUSH1 0x1 PUSH1 0xA PUSH1 0x0 DUP6 DUP6 DUP6 DUP2 DUP2 LT PUSH2 0xF82 JUMPI PUSH32 0x4E487B7100000000000000000000000000000000000000000000000000000000 PUSH1 0x0 MSTORE PUSH1 0x32 PUSH1 0x4 MSTORE PUSH1 0x24 PUSH1 0x0 REVERT JUMPDEST SWAP1 POP PUSH1 0x20 MUL ADD CALLDATALOAD DUP2 MSTORE PUSH1 0x20 ADD SWAP1 DUP2 MSTORE PUSH1 0x20 ADD PUSH1 0x0 KECCAK256 PUSH1 0x0 PUSH2 0x100 EXP DUP2 SLOAD DUP2 PUSH1 0xFF MUL NOT AND SWAP1 DUP4 ISZERO ISZERO MUL OR SWAP1 SSTORE POP DUP1 DUP1 PUSH2 0xFB9 SWAP1 PUSH2 0x1BD8 JUMP JUMPDEST SWAP2 POP POP PUSH2 0xF39 JUMP JUMPDEST POP POP POP JUMP JUMPDEST PUSH2 0xFCE PUSH2 0x11A9 JUMP JUMPDEST PUSH20 0xFFFFFFFFFFFFFFFFFFFFFFFFFFFFFFFFFFFFFFFF AND PUSH2 0xFEC PUSH2 0xB15 JUMP JUMPDEST PUSH20 0xFFFFFFFFFFFFFFFFFFFFFFFFFFFFFFFFFFFFFFFF AND EQ PUSH2 0x1042 JUMPI PUSH1 0x40 MLOAD PUSH32 0x8C379A000000000000000000000000000000000000000000000000000000000 DUP2 MSTORE PUSH1 0x4 ADD PUSH2 0x1039 SWAP1 PUSH2 0x193A JUMP JUMPDEST PUSH1 0x40 MLOAD DUP1 SWAP2 SUB SWAP1 REVERT JUMPDEST PUSH1 0x0 PUSH20 0xFFFFFFFFFFFFFFFFFFFFFFFFFFFFFFFFFFFFFFFF AND DUP2 PUSH20 0xFFFFFFFFFFFFFFFFFFFFFFFFFFFFFFFFFFFFFFFF AND EQ ISZERO PUSH2 0x10B2 JUMPI PUSH1 0x40 MLOAD PUSH32 0x8C379A000000000000000000000000000000000000000000000000000000000 DUP2 MSTORE PUSH1 0x4 ADD PUSH2 0x10A9 SWAP1 PUSH2 0x18DA JUMP JUMPDEST PUSH1 0x40 MLOAD DUP1 SWAP2 SUB SWAP1 REVERT JUMPDEST PUSH2 0x10BB DUP2 PUSH2 0x11B1 JUMP JUMPDEST POP JUMP JUMPDEST PUSH1 0x3 PUSH1 0x20 MSTORE DUP1 PUSH1 0x0 MSTORE PUSH1 0x40 PUSH1 0x0 KECCAK256 PUSH1 0x0 SWAP2 POP SWAP1 POP DUP1 PUSH1 0x0 ADD SLOAD SWAP1 DUP1 PUSH1 0x1 ADD SLOAD SWAP1 DUP1 PUSH1 0x2 ADD PUSH1 0x0 SWAP1 SLOAD SWAP1 PUSH2 0x100 EXP SWAP1 DIV PUSH20 0xFFFFFFFFFFFFFFFFFFFFFFFFFFFFFFFFFFFFFFFF AND SWAP1 DUP1 PUSH1 0x3 ADD DUP1 SLOAD PUSH2 0x1113 SWAP1 PUSH2 0x1B75 JUMP JUMPDEST DUP1 PUSH1 0x1F ADD PUSH1 0x20 DUP1 SWAP2 DIV MUL PUSH1 0x20 ADD PUSH1 0x40 MLOAD SWAP1 DUP2 ADD PUSH1 0x40 MSTORE DUP1 SWAP3 SWAP2 SWAP1 DUP2 DUP2 MSTORE PUSH1 0x20 ADD DUP3 DUP1 SLOAD PUSH2 0x113F SWAP1 PUSH2 0x1B75 JUMP JUMPDEST DUP1 ISZERO PUSH2 0x118C JUMPI DUP1 PUSH1 0x1F LT PUSH2 0x1161 JUMPI PUSH2 0x100 DUP1 DUP4 SLOAD DIV MUL DUP4 MSTORE SWAP2 PUSH1 0x20 ADD SWAP2 PUSH2 0x118C JUMP JUMPDEST DUP3 ADD SWAP2 SWAP1 PUSH1 0x0 MSTORE PUSH1 0x20 PUSH1 0x0 KECCAK256 SWAP1 JUMPDEST DUP2 SLOAD DUP2 MSTORE SWAP1 PUSH1 0x1 ADD SWAP1 PUSH1 0x20 ADD DUP1 DUP4 GT PUSH2 0x116F JUMPI DUP3 SWAP1 SUB PUSH1 0x1F AND DUP3 ADD SWAP2 JUMPDEST POP POP POP POP POP SWAP1 DUP1 PUSH1 0x4 ADD PUSH1 0x0 SWAP1 SLOAD SWAP1 PUSH2 0x100 EXP SWAP1 DIV PUSH1 0xFF AND SWAP1 POP DUP6 JUMP JUMPDEST PUSH1 0x0 CALLER SWAP1 POP SWAP1 JUMP JUMPDEST PUSH1 0x0 DUP1 PUSH1 0x0 SWAP1 SLOAD SWAP1 PUSH2 0x100 EXP SWAP1 DIV PUSH20 0xFFFFFFFFFFFFFFFFFFFFFFFFFFFFFFFFFFFFFFFF AND SWAP1 POP DUP2 PUSH1 0x0 DUP1 PUSH2 0x100 EXP DUP2 SLOAD DUP2 PUSH20 0xFFFFFFFFFFFFFFFFFFFFFFFFFFFFFFFFFFFFFFFF MUL NOT AND SWAP1 DUP4 PUSH20 0xFFFFFFFFFFFFFFFFFFFFFFFFFFFFFFFFFFFFFFFF AND MUL OR SWAP1 SSTORE POP DUP2 PUSH20 0xFFFFFFFFFFFFFFFFFFFFFFFFFFFFFFFFFFFFFFFF AND DUP2 PUSH20 0xFFFFFFFFFFFFFFFFFFFFFFFFFFFFFFFFFFFFFFFF AND PUSH32 0x8BE0079C531659141344CD1FD0A4F28419497F9722A3DAAFE3B4186F6B6457E0 PUSH1 0x40 MLOAD PUSH1 0x40 MLOAD DUP1 SWAP2 SUB SWAP1 LOG3 POP POP JUMP JUMPDEST DUP3 DUP1 SLOAD PUSH2 0x1281 SWAP1 PUSH2 0x1B75 JUMP JUMPDEST SWAP1 PUSH1 0x0 MSTORE PUSH1 0x20 PUSH1 0x0 KECCAK256 SWAP1 PUSH1 0x1F ADD PUSH1 0x20 SWAP1 DIV DUP2 ADD SWAP3 DUP3 PUSH2 0x12A3 JUMPI PUSH1 0x0 DUP6 SSTORE PUSH2 0x12EA JUMP JUMPDEST DUP3 PUSH1 0x1F LT PUSH2 0x12BC JUMPI DUP1 MLOAD PUSH1 0xFF NOT AND DUP4 DUP1 ADD OR DUP6 SSTORE PUSH2 0x12EA JUMP JUMPDEST DUP3 DUP1 ADD PUSH1 0x1 ADD DUP6 SSTORE DUP3 ISZERO PUSH2 0x12EA JUMPI SWAP2 DUP3 ADD JUMPDEST DUP3 DUP2 GT ISZERO PUSH2 0x12E9 JUMPI DUP3 MLOAD DUP3 SSTORE SWAP2 PUSH1 0x20 ADD SWAP2 SWAP1 PUSH1 0x1 ADD SWAP1 PUSH2 0x12CE JUMP JUMPDEST JUMPDEST POP SWAP1 POP PUSH2 0x12F7 SWAP2 SWAP1 PUSH2 0x13A2 JUMP JUMPDEST POP SWAP1 JUMP JUMPDEST DUP3 DUP1 SLOAD DUP3 DUP3 SSTORE SWAP1 PUSH1 0x0 MSTORE PUSH1 0x20 PUSH1 0x0 KECCAK256 SWAP1 PUSH1 0x1F ADD PUSH1 0x20 SWAP1 DIV DUP2 ADD SWAP3 DUP3 ISZERO PUSH2 0x1391 JUMPI SWAP2 PUSH1 0x20 MUL DUP3 ADD PUSH1 0x0 JUMPDEST DUP4 DUP3 GT ISZERO PUSH2 0x1362 JUMPI DUP4 MLOAD DUP4 DUP3 PUSH2 0x100 EXP DUP2 SLOAD DUP2 PUSH1 0xFF MUL NOT AND SWAP1 DUP4 PUSH1 0xFF AND MUL OR SWAP1 SSTORE POP SWAP3 PUSH1 0x20 ADD SWAP3 PUSH1 0x1 ADD PUSH1 0x20 DUP2 PUSH1 0x0 ADD DIV SWAP3 DUP4 ADD SWAP3 PUSH1 0x1 SUB MUL PUSH2 0x1324 JUMP JUMPDEST DUP1 ISZERO PUSH2 0x138F JUMPI DUP3 DUP2 PUSH2 0x100 EXP DUP2 SLOAD SWAP1 PUSH1 0xFF MUL NOT AND SWAP1 SSTORE PUSH1 0x1 ADD PUSH1 0x20 DUP2 PUSH1 0x0 ADD DIV SWAP3 DUP4 ADD SWAP3 PUSH1 0x1 SUB MUL PUSH2 0x1362 JUMP JUMPDEST POP JUMPDEST POP SWAP1 POP PUSH2 0x139E SWAP2 SWAP1 PUSH2 0x13A2 JUMP JUMPDEST POP SWAP1 JUMP JUMPDEST JUMPDEST DUP1 DUP3 GT ISZERO PUSH2 0x13BB JUMPI PUSH1 0x0 DUP2 PUSH1 0x0 SWAP1 SSTORE POP PUSH1 0x1 ADD PUSH2 0x13A3 JUMP JUMPDEST POP SWAP1 JUMP JUMPDEST PUSH1 0x0 PUSH2 0x13D2 PUSH2 0x13CD DUP5 PUSH2 0x1A87 JUMP JUMPDEST PUSH2 0x1A62 JUMP JUMPDEST SWAP1 POP DUP3 DUP2 MSTORE PUSH1 0x20 DUP2 ADD DUP5 DUP5 DUP5 ADD GT ISZERO PUSH2 0x13EA JUMPI PUSH1 0x0 DUP1 REVERT JUMPDEST PUSH2 0x13F5 DUP5 DUP3 DUP6 PUSH2 0x1B33 JUMP JUMPDEST POP SWAP4 SWAP3 POP POP POP JUMP JUMPDEST PUSH1 0x0 DUP2 CALLDATALOAD SWAP1 POP PUSH2 0x140C DUP2 PUSH2 0x1E2E JUMP JUMPDEST SWAP3 SWAP2 POP POP JUMP JUMPDEST PUSH1 0x0 DUP1 DUP4 PUSH1 0x1F DUP5 ADD SLT PUSH2 0x1424 JUMPI PUSH1 0x0 DUP1 REVERT JUMPDEST DUP3 CALLDATALOAD SWAP1 POP PUSH8 0xFFFFFFFFFFFFFFFF DUP2 GT ISZERO PUSH2 0x143D JUMPI PUSH1 0x0 DUP1 REVERT JUMPDEST PUSH1 0x20 DUP4 ADD SWAP2 POP DUP4 PUSH1 0x20 DUP3 MUL DUP4 ADD GT ISZERO PUSH2 0x1455 JUMPI PUSH1 0x0 DUP1 REVERT JUMPDEST SWAP3 POP SWAP3 SWAP1 POP JUMP JUMPDEST PUSH1 0x0 DUP2 CALLDATALOAD SWAP1 POP PUSH2 0x146B DUP2 PUSH2 0x1E45 JUMP JUMPDEST SWAP3 SWAP2 POP POP JUMP JUMPDEST PUSH1 0x0 DUP3 PUSH1 0x1F DUP4 ADD SLT PUSH2 0x1482 JUMPI PUSH1 0x0 DUP1 REVERT JUMPDEST DUP2 CALLDATALOAD PUSH2 0x1492 DUP5 DUP3 PUSH1 0x20 DUP7 ADD PUSH2 0x13BF JUMP JUMPDEST SWAP2 POP POP SWAP3 SWAP2 POP POP JUMP JUMPDEST PUSH1 0x0 DUP2 CALLDATALOAD SWAP1 POP PUSH2 0x14AA DUP2 PUSH2 0x1E5C JUMP JUMPDEST SWAP3 SWAP2 POP POP JUMP JUMPDEST PUSH1 0x0 DUP2 CALLDATALOAD SWAP1 POP PUSH2 0x14BF DUP2 PUSH2 0x1E73 JUMP JUMPDEST SWAP3 SWAP2 POP POP JUMP JUMPDEST PUSH1 0x0 PUSH1 0x20 DUP3 DUP5 SUB SLT ISZERO PUSH2 0x14D7 JUMPI PUSH1 0x0 DUP1 REVERT JUMPDEST PUSH1 0x0 PUSH2 0x14E5 DUP5 DUP3 DUP6 ADD PUSH2 0x13FD JUMP JUMPDEST SWAP2 POP POP SWAP3 SWAP2 POP POP JUMP JUMPDEST PUSH1 0x0 DUP1 PUSH1 0x40 DUP4 DUP6 SUB SLT ISZERO PUSH2 0x1501 JUMPI PUSH1 0x0 DUP1 REVERT JUMPDEST PUSH1 0x0 PUSH2 0x150F DUP6 DUP3 DUP7 ADD PUSH2 0x13FD JUMP JUMPDEST SWAP3 POP POP PUSH1 0x20 PUSH2 0x1520 DUP6 DUP3 DUP7 ADD PUSH2 0x149B JUMP JUMPDEST SWAP2 POP POP SWAP3 POP SWAP3 SWAP1 POP JUMP JUMPDEST PUSH1 0x0 DUP1 PUSH1 0x20 DUP4 DUP6 SUB SLT ISZERO PUSH2 0x153D JUMPI PUSH1 0x0 DUP1 REVERT JUMPDEST PUSH1 0x0 DUP4 ADD CALLDATALOAD PUSH8 0xFFFFFFFFFFFFFFFF DUP2 GT ISZERO PUSH2 0x1557 JUMPI PUSH1 0x0 DUP1 REVERT JUMPDEST PUSH2 0x1563 DUP6 DUP3 DUP7 ADD PUSH2 0x1412 JUMP JUMPDEST SWAP3 POP SWAP3 POP POP SWAP3 POP SWAP3 SWAP1 POP JUMP JUMPDEST PUSH1 0x0 DUP1 PUSH1 0x40 DUP4 DUP6 SUB SLT ISZERO PUSH2 0x1582 JUMPI PUSH1 0x0 DUP1 REVERT JUMPDEST PUSH1 0x0 DUP4 ADD CALLDATALOAD PUSH8 0xFFFFFFFFFFFFFFFF DUP2 GT ISZERO PUSH2 0x159C JUMPI PUSH1 0x0 DUP1 REVERT JUMPDEST PUSH2 0x15A8 DUP6 DUP3 DUP7 ADD PUSH2 0x1471 JUMP JUMPDEST SWAP3 POP POP PUSH1 0x20 PUSH2 0x15B9 DUP6 DUP3 DUP7 ADD PUSH2 0x13FD JUMP JUMPDEST SWAP2 POP POP SWAP3 POP SWAP3 SWAP1 POP JUMP JUMPDEST PUSH1 0x0 PUSH1 0x20 DUP3 DUP5 SUB SLT ISZERO PUSH2 0x15D5 JUMPI PUSH1 0x0 DUP1 REVERT JUMPDEST PUSH1 0x0 PUSH2 0x15E3 DUP5 DUP3 DUP6 ADD PUSH2 0x149B JUMP JUMPDEST SWAP2 POP POP SWAP3 SWAP2 POP POP JUMP JUMPDEST PUSH1 0x0 DUP1 PUSH1 0x40 DUP4 DUP6 SUB SLT ISZERO PUSH2 0x15FF JUMPI PUSH1 0x0 DUP1 REVERT JUMPDEST PUSH1 0x0 PUSH2 0x160D DUP6 DUP3 DUP7 ADD PUSH2 0x149B JUMP JUMPDEST SWAP3 POP POP PUSH1 0x20 PUSH2 0x161E DUP6 DUP3 DUP7 ADD PUSH2 0x13FD JUMP JUMPDEST SWAP2 POP POP SWAP3 POP SWAP3 SWAP1 POP JUMP JUMPDEST PUSH1 0x0 DUP1 PUSH1 0x0 PUSH1 0x60 DUP5 DUP7 SUB SLT ISZERO PUSH2 0x163D JUMPI PUSH1 0x0 DUP1 REVERT JUMPDEST PUSH1 0x0 PUSH2 0x164B DUP7 DUP3 DUP8 ADD PUSH2 0x149B JUMP JUMPDEST SWAP4 POP POP PUSH1 0x20 PUSH2 0x165C DUP7 DUP3 DUP8 ADD PUSH2 0x13FD JUMP JUMPDEST SWAP3 POP POP PUSH1 0x40 PUSH2 0x166D DUP7 DUP3 DUP8 ADD PUSH2 0x145C JUMP JUMPDEST SWAP2 POP POP SWAP3 POP SWAP3 POP SWAP3 JUMP JUMPDEST PUSH1 0x0 DUP1 PUSH1 0x0 DUP1 PUSH1 0x80 DUP6 DUP8 SUB SLT ISZERO PUSH2 0x168D JUMPI PUSH1 0x0 DUP1 REVERT JUMPDEST PUSH1 0x0 PUSH2 0x169B DUP8 DUP3 DUP9 ADD PUSH2 0x149B JUMP JUMPDEST SWAP5 POP POP PUSH1 0x20 PUSH2 0x16AC DUP8 DUP3 DUP9 ADD PUSH2 0x13FD JUMP JUMPDEST SWAP4 POP POP PUSH1 0x40 PUSH2 0x16BD DUP8 DUP3 DUP9 ADD PUSH2 0x149B JUMP JUMPDEST SWAP3 POP POP PUSH1 0x60 PUSH2 0x16CE DUP8 DUP3 DUP9 ADD PUSH2 0x149B JUMP JUMPDEST SWAP2 POP POP SWAP3 SWAP6 SWAP2 SWAP5 POP SWAP3 POP JUMP JUMPDEST PUSH1 0x0 DUP1 PUSH1 0x0 PUSH1 0x60 DUP5 DUP7 SUB SLT ISZERO PUSH2 0x16EF JUMPI PUSH1 0x0 DUP1 REVERT JUMPDEST PUSH1 0x0 PUSH2 0x16FD DUP7 DUP3 DUP8 ADD PUSH2 0x149B JUMP JUMPDEST SWAP4 POP POP PUSH1 0x20 PUSH2 0x170E DUP7 DUP3 DUP8 ADD PUSH2 0x149B JUMP JUMPDEST SWAP3 POP POP PUSH1 0x40 PUSH2 0x171F DUP7 DUP3 DUP8 ADD PUSH2 0x14B0 JUMP JUMPDEST SWAP2 POP POP SWAP3 POP SWAP3 POP SWAP3 JUMP JUMPDEST PUSH2 0x1732 DUP2 PUSH2 0x1AD4 JUMP JUMPDEST DUP3 MSTORE POP POP JUMP JUMPDEST PUSH2 0x1741 DUP2 PUSH2 0x1AE6 JUMP JUMPDEST DUP3 MSTORE POP POP JUMP JUMPDEST PUSH1 0x0 PUSH2 0x1752 DUP3 PUSH2 0x1AB8 JUMP JUMPDEST PUSH2 0x175C DUP2 DUP6 PUSH2 0x1AC3 JUMP JUMPDEST SWAP4 POP PUSH2 0x176C DUP2 DUP6 PUSH1 0x20 DUP7 ADD PUSH2 0x1B42 JUMP JUMPDEST PUSH2 0x1775 DUP2 PUSH2 0x1CD8 JUMP JUMPDEST DUP5 ADD SWAP2 POP POP SWAP3 SWAP2 POP POP JUMP JUMPDEST PUSH1 0x0 PUSH2 0x178D PUSH1 0x10 DUP4 PUSH2 0x1AC3 JUMP JUMPDEST SWAP2 POP PUSH2 0x1798 DUP3 PUSH2 0x1CE9 JUMP JUMPDEST PUSH1 0x20 DUP3 ADD SWAP1 POP SWAP2 SWAP1 POP JUMP JUMPDEST PUSH1 0x0 PUSH2 0x17B0 PUSH1 0x26 DUP4 PUSH2 0x1AC3 JUMP JUMPDEST SWAP2 POP PUSH2 0x17BB DUP3 PUSH2 0x1D12 JUMP JUMPDEST PUSH1 0x40 DUP3 ADD SWAP1 POP SWAP2 SWAP1 POP JUMP JUMPDEST PUSH1 0x0 PUSH2 0x17D3 PUSH1 0xF DUP4 PUSH2 0x1AC3 JUMP JUMPDEST SWAP2 POP PUSH2 0x17DE DUP3 PUSH2 0x1D61 JUMP JUMPDEST PUSH1 0x20 DUP3 ADD SWAP1 POP SWAP2 SWAP1 POP JUMP JUMPDEST PUSH1 0x0 PUSH2 0x17F6 PUSH1 0x9 DUP4 PUSH2 0x1AC3 JUMP JUMPDEST SWAP2 POP PUSH2 0x1801 DUP3 PUSH2 0x1D8A JUMP JUMPDEST PUSH1 0x20 DUP3 ADD SWAP1 POP SWAP2 SWAP1 POP JUMP JUMPDEST PUSH1 0x0 PUSH2 0x1819 PUSH1 0x20 DUP4 PUSH2 0x1AC3 JUMP JUMPDEST SWAP2 POP PUSH2 0x1824 DUP3 PUSH2 0x1DB3 JUMP JUMPDEST PUSH1 0x20 DUP3 ADD SWAP1 POP SWAP2 SWAP1 POP JUMP JUMPDEST PUSH1 0x0 PUSH2 0x183C PUSH1 0x5 DUP4 PUSH2 0x1AC3 JUMP JUMPDEST SWAP2 POP PUSH2 0x1847 DUP3 PUSH2 0x1DDC JUMP JUMPDEST PUSH1 0x20 DUP3 ADD SWAP1 POP SWAP2 SWAP1 POP JUMP JUMPDEST PUSH1 0x0 PUSH2 0x185F PUSH1 0x9 DUP4 PUSH2 0x1AC3 JUMP JUMPDEST SWAP2 POP PUSH2 0x186A DUP3 PUSH2 0x1E05 JUMP JUMPDEST PUSH1 0x20 DUP3 ADD SWAP1 POP SWAP2 SWAP1 POP JUMP JUMPDEST PUSH2 0x187E DUP2 PUSH2 0x1B1C JUMP JUMPDEST DUP3 MSTORE POP POP JUMP JUMPDEST PUSH1 0x0 PUSH1 0x20 DUP3 ADD SWAP1 POP PUSH2 0x1899 PUSH1 0x0 DUP4 ADD DUP5 PUSH2 0x1729 JUMP JUMPDEST SWAP3 SWAP2 POP POP JUMP JUMPDEST PUSH1 0x0 PUSH1 0x20 DUP3 ADD SWAP1 POP PUSH2 0x18B4 PUSH1 0x0 DUP4 ADD DUP5 PUSH2 0x1738 JUMP JUMPDEST SWAP3 SWAP2 POP POP JUMP JUMPDEST PUSH1 0x0 PUSH1 0x20 DUP3 ADD SWAP1 POP DUP2 DUP2 SUB PUSH1 0x0 DUP4 ADD MSTORE PUSH2 0x18D3 DUP2 PUSH2 0x1780 JUMP JUMPDEST SWAP1 POP SWAP2 SWAP1 POP JUMP JUMPDEST PUSH1 0x0 PUSH1 0x20 DUP3 ADD SWAP1 POP DUP2 DUP2 SUB PUSH1 0x0 DUP4 ADD MSTORE PUSH2 0x18F3 DUP2 PUSH2 0x17A3 JUMP JUMPDEST SWAP1 POP SWAP2 SWAP1 POP JUMP JUMPDEST PUSH1 0x0 PUSH1 0x20 DUP3 ADD SWAP1 POP DUP2 DUP2 SUB PUSH1 0x0 DUP4 ADD MSTORE PUSH2 0x1913 DUP2 PUSH2 0x17C6 JUMP JUMPDEST SWAP1 POP SWAP2 SWAP1 POP JUMP JUMPDEST PUSH1 0x0 PUSH1 0x20 DUP3 ADD SWAP1 POP DUP2 DUP2 SUB PUSH1 0x0 DUP4 ADD MSTORE PUSH2 0x1933 DUP2 PUSH2 0x17E9 JUMP JUMPDEST SWAP1 POP SWAP2 SWAP1 POP JUMP JUMPDEST PUSH1 0x0 PUSH1 0x20 DUP3 ADD SWAP1 POP DUP2 DUP2 SUB PUSH1 0x0 DUP4 ADD MSTORE PUSH2 0x1953 DUP2 PUSH2 0x180C JUMP JUMPDEST SWAP1 POP SWAP2 SWAP1 POP JUMP JUMPDEST PUSH1 0x0 PUSH1 0x20 DUP3 ADD SWAP1 POP DUP2 DUP2 SUB PUSH1 0x0 DUP4 ADD MSTORE PUSH2 0x1973 DUP2 PUSH2 0x182F JUMP JUMPDEST SWAP1 POP SWAP2 SWAP1 POP JUMP JUMPDEST PUSH1 0x0 PUSH1 0x20 DUP3 ADD SWAP1 POP DUP2 DUP2 SUB PUSH1 0x0 DUP4 ADD MSTORE PUSH2 0x1993 DUP2 PUSH2 0x1852 JUMP JUMPDEST SWAP1 POP SWAP2 SWAP1 POP JUMP JUMPDEST PUSH1 0x0 PUSH1 0x20 DUP3 ADD SWAP1 POP PUSH2 0x19AF PUSH1 0x0 DUP4 ADD DUP5 PUSH2 0x1875 JUMP JUMPDEST SWAP3 SWAP2 POP POP JUMP JUMPDEST PUSH1 0x0 PUSH1 0xA0 DUP3 ADD SWAP1 POP PUSH2 0x19CA PUSH1 0x0 DUP4 ADD DUP9 PUSH2 0x1875 JUMP JUMPDEST PUSH2 0x19D7 PUSH1 0x20 DUP4 ADD DUP8 PUSH2 0x1875 JUMP JUMPDEST PUSH2 0x19E4 PUSH1 0x40 DUP4 ADD DUP7 PUSH2 0x1729 JUMP JUMPDEST DUP2 DUP2 SUB PUSH1 0x60 DUP4 ADD MSTORE PUSH2 0x19F6 DUP2 DUP6 PUSH2 0x1747 JUMP JUMPDEST SWAP1 POP PUSH2 0x1A05 PUSH1 0x80 DUP4 ADD DUP5 PUSH2 0x1738 JUMP JUMPDEST SWAP7 SWAP6 POP POP POP POP POP POP JUMP JUMPDEST PUSH1 0x0 PUSH1 0xA0 DUP3 ADD SWAP1 POP PUSH2 0x1A24 PUSH1 0x0 DUP4 ADD DUP9 PUSH2 0x1875 JUMP JUMPDEST PUSH2 0x1A31 PUSH1 0x20 DUP4 ADD DUP8 PUSH2 0x1875 JUMP JUMPDEST PUSH2 0x1A3E PUSH1 0x40 DUP4 ADD DUP7 PUSH2 0x1875 JUMP JUMPDEST PUSH2 0x1A4B PUSH1 0x60 DUP4 ADD DUP6 PUSH2 0x1729 JUMP JUMPDEST PUSH2 0x1A58 PUSH1 0x80 DUP4 ADD DUP5 PUSH2 0x1738 JUMP JUMPDEST SWAP7 SWAP6 POP POP POP POP POP POP JUMP JUMPDEST PUSH1 0x0 PUSH2 0x1A6C PUSH2 0x1A7D JUMP JUMPDEST SWAP1 POP PUSH2 0x1A78 DUP3 DUP3 PUSH2 0x1BA7 JUMP JUMPDEST SWAP2 SWAP1 POP JUMP JUMPDEST PUSH1 0x0 PUSH1 0x40 MLOAD SWAP1 POP SWAP1 JUMP JUMPDEST PUSH1 0x0 PUSH8 0xFFFFFFFFFFFFFFFF DUP3 GT ISZERO PUSH2 0x1AA2 JUMPI PUSH2 0x1AA1 PUSH2 0x1CA9 JUMP JUMPDEST JUMPDEST PUSH2 0x1AAB DUP3 PUSH2 0x1CD8 JUMP JUMPDEST SWAP1 POP PUSH1 0x20 DUP2 ADD SWAP1 POP SWAP2 SWAP1 POP JUMP JUMPDEST PUSH1 0x0 DUP2 MLOAD SWAP1 POP SWAP2 SWAP1 POP JUMP JUMPDEST PUSH1 0x0 DUP3 DUP3 MSTORE PUSH1 0x20 DUP3 ADD SWAP1 POP SWAP3 SWAP2 POP POP JUMP JUMPDEST PUSH1 0x0 PUSH2 0x1ADF DUP3 PUSH2 0x1AFC JUMP JUMPDEST SWAP1 POP SWAP2 SWAP1 POP JUMP JUMPDEST PUSH1 0x0 DUP2 ISZERO ISZERO SWAP1 POP SWAP2 SWAP1 POP JUMP JUMPDEST PUSH1 0x0 DUP2 SWAP1 POP SWAP2 SWAP1 POP JUMP JUMPDEST PUSH1 0x0 PUSH20 0xFFFFFFFFFFFFFFFFFFFFFFFFFFFFFFFFFFFFFFFF DUP3 AND SWAP1 POP SWAP2 SWAP1 POP JUMP JUMPDEST PUSH1 0x0 DUP2 SWAP1 POP SWAP2 SWAP1 POP JUMP JUMPDEST PUSH1 0x0 PUSH1 0xFF DUP3 AND SWAP1 POP SWAP2 SWAP1 POP JUMP JUMPDEST DUP3 DUP2 DUP4 CALLDATACOPY PUSH1 0x0 DUP4 DUP4 ADD MSTORE POP POP POP JUMP JUMPDEST PUSH1 0x0 JUMPDEST DUP4 DUP2 LT ISZERO PUSH2 0x1B60 JUMPI DUP1 DUP3 ADD MLOAD DUP2 DUP5 ADD MSTORE PUSH1 0x20 DUP2 ADD SWAP1 POP PUSH2 0x1B45 JUMP JUMPDEST DUP4 DUP2 GT ISZERO PUSH2 0x1B6F JUMPI PUSH1 0x0 DUP5 DUP5 ADD MSTORE JUMPDEST POP POP POP POP JUMP JUMPDEST PUSH1 0x0 PUSH1 0x2 DUP3 DIV SWAP1 POP PUSH1 0x1 DUP3 AND DUP1 PUSH2 0x1B8D JUMPI PUSH1 0x7F DUP3 AND SWAP2 POP JUMPDEST PUSH1 0x20 DUP3 LT DUP2 EQ ISZERO PUSH2 0x1BA1 JUMPI PUSH2 0x1BA0 PUSH2 0x1C7A JUMP JUMPDEST JUMPDEST POP SWAP2 SWAP1 POP JUMP JUMPDEST PUSH2 0x1BB0 DUP3 PUSH2 0x1CD8 JUMP JUMPDEST DUP2 ADD DUP2 DUP2 LT PUSH8 0xFFFFFFFFFFFFFFFF DUP3 GT OR ISZERO PUSH2 0x1BCF JUMPI PUSH2 0x1BCE PUSH2 0x1CA9 JUMP JUMPDEST JUMPDEST DUP1 PUSH1 0x40 MSTORE POP POP POP JUMP JUMPDEST PUSH1 0x0 PUSH2 0x1BE3 DUP3 PUSH2 0x1B1C JUMP JUMPDEST SWAP2 POP PUSH32 0xFFFFFFFFFFFFFFFFFFFFFFFFFFFFFFFFFFFFFFFFFFFFFFFFFFFFFFFFFFFFFFFF DUP3 EQ ISZERO PUSH2 0x1C16 JUMPI PUSH2 0x1C15 PUSH2 0x1C4B JUMP JUMPDEST JUMPDEST PUSH1 0x1 DUP3 ADD SWAP1 POP SWAP2 SWAP1 POP JUMP JUMPDEST PUSH1 0x0 PUSH2 0x1C2C DUP3 PUSH2 0x1B26 JUMP JUMPDEST SWAP2 POP PUSH1 0xFF DUP3 EQ ISZERO PUSH2 0x1C40 JUMPI PUSH2 0x1C3F PUSH2 0x1C4B JUMP JUMPDEST JUMPDEST PUSH1 0x1 DUP3 ADD SWAP1 POP SWAP2 SWAP1 POP JUMP JUMPDEST PUSH32 0x4E487B7100000000000000000000000000000000000000000000000000000000 PUSH1 0x0 MSTORE PUSH1 0x11 PUSH1 0x4 MSTORE PUSH1 0x24 PUSH1 0x0 REVERT JUMPDEST PUSH32 0x4E487B7100000000000000000000000000000000000000000000000000000000 PUSH1 0x0 MSTORE PUSH1 0x22 PUSH1 0x4 MSTORE PUSH1 0x24 PUSH1 0x0 REVERT JUMPDEST PUSH32 0x4E487B7100000000000000000000000000000000000000000000000000000000 PUSH1 0x0 MSTORE PUSH1 0x41 PUSH1 0x4 MSTORE PUSH1 0x24 PUSH1 0x0 REVERT JUMPDEST PUSH1 0x0 PUSH1 0x1F NOT PUSH1 0x1F DUP4 ADD AND SWAP1 POP SWAP2 SWAP1 POP JUMP JUMPDEST PUSH32 0x616C726561647920656D706C6F79656500000000000000000000000000000000 PUSH1 0x0 DUP3 ADD MSTORE POP JUMP JUMPDEST PUSH32 0x4F776E61626C653A206E6577206F776E657220697320746865207A65726F2061 PUSH1 0x0 DUP3 ADD MSTORE PUSH32 0x6464726573730000000000000000000000000000000000000000000000000000 PUSH1 0x20 DUP3 ADD MSTORE POP JUMP JUMPDEST PUSH32 0x6F6E6C7920617574686F72697A65640000000000000000000000000000000000 PUSH1 0x0 DUP3 ADD MSTORE POP JUMP JUMPDEST PUSH32 0x21646561644C696E650000000000000000000000000000000000000000000000 PUSH1 0x0 DUP3 ADD MSTORE POP JUMP JUMPDEST PUSH32 0x4F776E61626C653A2063616C6C6572206973206E6F7420746865206F776E6572 PUSH1 0x0 DUP3 ADD MSTORE POP JUMP JUMPDEST PUSH32 0x2174696D65000000000000000000000000000000000000000000000000000000 PUSH1 0x0 DUP3 ADD MSTORE POP JUMP JUMPDEST PUSH32 0x21656D706C6F7965650000000000000000000000000000000000000000000000 PUSH1 0x0 DUP3 ADD MSTORE POP JUMP JUMPDEST PUSH2 0x1E37 DUP2 PUSH2 0x1AD4 JUMP JUMPDEST DUP2 EQ PUSH2 0x1E42 JUMPI PUSH1 0x0 DUP1 REVERT JUMPDEST POP JUMP JUMPDEST PUSH2 0x1E4E DUP2 PUSH2 0x1AF2 JUMP JUMPDEST DUP2 EQ PUSH2 0x1E59 JUMPI PUSH1 0x0 DUP1 REVERT JUMPDEST POP JUMP JUMPDEST PUSH2 0x1E65 DUP2 PUSH2 0x1B1C JUMP JUMPDEST DUP2 EQ PUSH2 0x1E70 JUMPI PUSH1 0x0 DUP1 REVERT JUMPDEST POP JUMP JUMPDEST PUSH2 0x1E7C DUP2 PUSH2 0x1B26 JUMP JUMPDEST DUP2 EQ PUSH2 0x1E87 JUMPI PUSH1 0x0 DUP1 REVERT JUMPDEST POP JUMP INVALID LOG2 PUSH5 0x6970667358 0x22 SLT KECCAK256 PUSH19 0xA5A15024323EA6F18D30B42AB019ED960AF823 0xA8 CREATE SGT SWAP16 0x1E SHL 0xBF MOD 0xE7 SWAP11 0xC3 PUSH25 0x64736F6C634300080400330000000000000000000000000000 "
        },
        "methodIdentifiers": {
          "allProposals(address,uint256)": "c0026399",
          "companyDescription(uint256)": "fad4b284",
          "createProposalFromCompany(uint256,uint256,uint8)": "c9ec2374",
          "isEmployee(address,uint256)": "828e2dc6",
          "onGoingProposals(uint256)": "0a17addd",
          "owner()": "8da5cb5b",
          "proposalsCreated(uint256)": "5289e6ad",
          "renounceOwnership()": "715018a6",
          "setHashes(bytes32[])": "ebaa97f7",
          "signCompany(string,address)": "2fd8b4af",
          "signEmployee(uint256,address,bytes32)": "8565c7fe",
          "submitEmployeeVote(uint256,address,uint256,uint256)": "08ec1fee",
          "transferOwnership(address)": "f2fde38b",
          "votedProposals(uint256,address)": "51850ffc"
        }
      }
    }
  }
}