{
  "_format": "hh-sol-artifact-1",
  "contractName": "DAO",
  "sourceName": "contracts/DAO.sol",
  "abi": [
    {
      "inputs": [],
      "stateMutability": "nonpayable",
      "type": "constructor"
    },
    {
      "inputs": [
        {
          "internalType": "address",
          "name": "",
          "type": "address"
        },
        {
          "internalType": "uint256",
          "name": "",
          "type": "uint256"
        }
      ],
      "name": "allProposals",
      "outputs": [
        {
          "internalType": "uint256",
          "name": "initializedAt",
          "type": "uint256"
        },
        {
          "internalType": "uint256",
          "name": "deadLine",
          "type": "uint256"
        },
        {
          "internalType": "uint256",
          "name": "totalVoted",
          "type": "uint256"
        },
        {
          "internalType": "address",
          "name": "creator",
          "type": "address"
        },
        {
          "internalType": "bool",
          "name": "active",
          "type": "bool"
        }
      ],
      "stateMutability": "view",
      "type": "function"
    },
    {
      "inputs": [
        {
          "internalType": "uint256",
          "name": "",
          "type": "uint256"
        }
      ],
      "name": "companyDescription",
      "outputs": [
        {
          "internalType": "uint256",
          "name": "initializedAt",
          "type": "uint256"
        },
        {
          "internalType": "uint256",
          "name": "companyId",
          "type": "uint256"
        },
        {
          "internalType": "uint256",
          "name": "proposalCreatorTokenRate",
          "type": "uint256"
        },
        {
          "internalType": "address",
          "name": "owner",
          "type": "address"
        },
        {
          "internalType": "string",
          "name": "companyName",
          "type": "string"
        },
        {
          "internalType": "bool",
          "name": "active",
          "type": "bool"
        }
      ],
      "stateMutability": "view",
      "type": "function"
    },
    {
      "inputs": [
        {
          "internalType": "uint256",
          "name": "_companyIndex",
          "type": "uint256"
        },
        {
          "internalType": "uint256",
          "name": "_deadLine",
          "type": "uint256"
        },
        {
          "internalType": "uint8",
          "name": "_inputTargets",
          "type": "uint8"
        }
      ],
      "name": "createProposalFromCompany",
      "outputs": [],
      "stateMutability": "nonpayable",
      "type": "function"
    },
    {
      "inputs": [
        {
          "internalType": "uint256",
          "name": "_companyIndex",
          "type": "uint256"
        },
        {
          "internalType": "uint256",
          "name": "_deadLine",
          "type": "uint256"
        },
        {
          "internalType": "uint8",
          "name": "_inputTargets",
          "type": "uint8"
        }
      ],
      "name": "createProposalFromEmployee",
      "outputs": [],
      "stateMutability": "nonpayable",
      "type": "function"
    },
    {
      "inputs": [
        {
          "internalType": "uint256",
          "name": "",
          "type": "uint256"
        },
        {
          "internalType": "address",
          "name": "",
          "type": "address"
        }
      ],
      "name": "eveTokenOfCompany",
      "outputs": [
        {
          "internalType": "uint256",
          "name": "",
          "type": "uint256"
        }
      ],
      "stateMutability": "view",
      "type": "function"
    },
    {
      "inputs": [
        {
          "internalType": "uint256",
          "name": "_companyIndex",
          "type": "uint256"
        },
        {
          "internalType": "address",
          "name": "_proposalCreator",
          "type": "address"
        },
        {
          "internalType": "uint256",
          "name": "_proposalIndex",
          "type": "uint256"
        }
      ],
      "name": "finishEmployeeProposal",
      "outputs": [],
      "stateMutability": "nonpayable",
      "type": "function"
    },
    {
      "inputs": [
        {
          "internalType": "address",
          "name": "",
          "type": "address"
        },
        {
          "internalType": "uint256",
          "name": "",
          "type": "uint256"
        }
      ],
      "name": "isEmployee",
      "outputs": [
        {
          "internalType": "bool",
          "name": "",
          "type": "bool"
        }
      ],
      "stateMutability": "view",
      "type": "function"
    },
    {
      "inputs": [
        {
          "internalType": "uint256",
          "name": "",
          "type": "uint256"
        }
      ],
      "name": "onGoingProposals",
      "outputs": [
        {
          "internalType": "uint256",
          "name": "",
          "type": "uint256"
        }
      ],
      "stateMutability": "view",
      "type": "function"
    },
    {
      "inputs": [
        {
          "internalType": "uint256",
          "name": "",
          "type": "uint256"
        }
      ],
      "name": "proposalsCreated",
      "outputs": [
        {
          "internalType": "uint256",
          "name": "",
          "type": "uint256"
        }
      ],
      "stateMutability": "view",
      "type": "function"
    },
    {
      "inputs": [
        {
          "internalType": "uint256",
          "name": "_proposalCreatorTokenRate",
          "type": "uint256"
        },
        {
          "internalType": "uint256",
          "name": "_companyIndex",
          "type": "uint256"
        }
      ],
      "name": "setProposalCreatorTokenRate",
      "outputs": [],
      "stateMutability": "nonpayable",
      "type": "function"
    },
    {
      "inputs": [
        {
          "internalType": "string",
          "name": "_name",
          "type": "string"
        }
      ],
      "name": "signCompany",
      "outputs": [],
      "stateMutability": "nonpayable",
      "type": "function"
    },
    {
      "inputs": [
        {
          "internalType": "uint256",
          "name": "_companyIndex",
          "type": "uint256"
        },
        {
          "internalType": "address",
          "name": "_employee",
          "type": "address"
        }
      ],
      "name": "signEmployee",
      "outputs": [],
      "stateMutability": "nonpayable",
      "type": "function"
    },
    {
      "inputs": [
        {
          "internalType": "uint256",
          "name": "_companyIndex",
          "type": "uint256"
        },
        {
          "internalType": "address",
          "name": "_proposalCreator",
          "type": "address"
        },
        {
          "internalType": "uint256",
          "name": "_proposalIndex",
          "type": "uint256"
        },
        {
          "internalType": "uint256",
          "name": "_input",
          "type": "uint256"
        }
      ],
      "name": "submitEmployeeVote",
      "outputs": [],
      "stateMutability": "nonpayable",
      "type": "function"
    }
  ],
  "bytecode": "0x6080604052600160025534801561001557600080fd5b50600160008190555033600160006101000a81548173ffffffffffffffffffffffffffffffffffffffff021916908373ffffffffffffffffffffffffffffffffffffffff16021790555061266c8061006e6000396000f3fe608060405234801561001057600080fd5b50600436106100cf5760003560e01c80635289e6ad1161008c578063aaea573a11610066578063aaea573a14610220578063c00263991461023c578063c9ec237414610270578063fad4b2841461028c576100cf565b80635289e6ad146101a4578063828e2dc6146101d45780639ede6f8314610204576100cf565b806304998be4146100d457806308ec1fee146101045780630a17addd1461012057806312aa7c1a14610150578063347f89901461016c5780633951654914610188575b600080fd5b6100ee60048036038101906100e99190611b9e565b6102c1565b6040516100fb9190611ff3565b60405180910390f35b61011e60048036038101906101199190611c29565b6102e6565b005b61013a60048036038101906101359190611b75565b610775565b6040516101479190611ff3565b60405180910390f35b61016a60048036038101906101659190611b9e565b61078d565b005b61018660048036038101906101819190611bda565b61097c565b005b6101a2600480360381019061019d9190611c8c565b610e40565b005b6101be60048036038101906101b99190611b75565b610f03565b6040516101cb9190611ff3565b60405180910390f35b6101ee60048036038101906101e99190611af8565b610f1b565b6040516101fb9190611eb8565b60405180910390f35b61021e60048036038101906102199190611b34565b610f4a565b005b61023a60048036038101906102359190611cc8565b6110a6565b005b61025660048036038101906102519190611af8565b61141e565b60405161026795949392919061200e565b60405180910390f35b61028a60048036038101906102859190611cc8565b61149e565b005b6102a660048036038101906102a19190611b75565b611816565b6040516102b896959493929190612061565b60405180910390f35b6005602052816000526040600020602052806000526040600020600091509150505481565b6002600054141561032c576040517f08c379a000000000000000000000000000000000000000000000000000000000815260040161032390611fb3565b60405180910390fd5b600260008190555060011515600460003373ffffffffffffffffffffffffffffffffffffffff1673ffffffffffffffffffffffffffffffffffffffff168152602001908152602001600020600086815260200190815260200160002060009054906101000a900460ff161515146103d8576040517f08c379a00000000000000000000000000000000000000000000000000000000081526004016103cf90611f93565b60405180910390fd5b60011515600860008573ffffffffffffffffffffffffffffffffffffffff1673ffffffffffffffffffffffffffffffffffffffff1681526020019081526020016000208381548110610453577f4e487b7100000000000000000000000000000000000000000000000000000000600052603260045260246000fd5b906000526020600020906005020160040160149054906101000a900460ff161515146104b4576040517f08c379a00000000000000000000000000000000000000000000000000000000081526004016104ab90611f13565b60405180910390fd5b600860008473ffffffffffffffffffffffffffffffffffffffff1673ffffffffffffffffffffffffffffffffffffffff168152602001908152602001600020828154811061052b577f4e487b7100000000000000000000000000000000000000000000000000000000600052603260045260246000fd5b90600052602060002090600502016001015442111561054957600080fd5b600860008473ffffffffffffffffffffffffffffffffffffffff1673ffffffffffffffffffffffffffffffffffffffff16815260200190815260200160002082815481106105c0577f4e487b7100000000000000000000000000000000000000000000000000000000600052603260045260246000fd5b90600052602060002090600502016003018181548110610609577f4e487b7100000000000000000000000000000000000000000000000000000000600052603260045260246000fd5b906000526020600020906020918282040191900681819054906101000a900460ff168092919061063890612389565b91906101000a81548160ff021916908360ff16021790555050670de0b6b3a7640000600860008573ffffffffffffffffffffffffffffffffffffffff1673ffffffffffffffffffffffffffffffffffffffff16815260200190815260200160002083815481106106d1577f4e487b7100000000000000000000000000000000000000000000000000000000600052603260045260246000fd5b906000526020600020906005020160020160008282546106f1919061213b565b92505081905550670de0b6b3a76400006005600086815260200190815260200160002060003373ffffffffffffffffffffffffffffffffffffffff1673ffffffffffffffffffffffffffffffffffffffff1681526020019081526020016000206000828254610760919061213b565b92505081905550600160008190555050505050565b60076020528060005260406000206000915090505481565b3373ffffffffffffffffffffffffffffffffffffffff166003600084815260200190815260200160002060030160009054906101000a900473ffffffffffffffffffffffffffffffffffffffff1673ffffffffffffffffffffffffffffffffffffffff1614610831576040517f08c379a000000000000000000000000000000000000000000000000000000000815260040161082890611ef3565b60405180910390fd5b60001515600460008373ffffffffffffffffffffffffffffffffffffffff1673ffffffffffffffffffffffffffffffffffffffff168152602001908152602001600020600084815260200190815260200160002060009054906101000a900460ff161515146108d5576040517f08c379a00000000000000000000000000000000000000000000000000000000081526004016108cc90611ed3565b60405180910390fd5b600073ffffffffffffffffffffffffffffffffffffffff168173ffffffffffffffffffffffffffffffffffffffff16141561090f57600080fd5b6001600460008373ffffffffffffffffffffffffffffffffffffffff1673ffffffffffffffffffffffffffffffffffffffff168152602001908152602001600020600084815260200190815260200160002060006101000a81548160ff0219169083151502179055505050565b60011515600860008473ffffffffffffffffffffffffffffffffffffffff1673ffffffffffffffffffffffffffffffffffffffff16815260200190815260200160002082815481106109f7577f4e487b7100000000000000000000000000000000000000000000000000000000600052603260045260246000fd5b906000526020600020906005020160040160149054906101000a900460ff16151514610a58576040517f08c379a0000000000000000000000000000000000000000000000000000000008152600401610a4f90611f33565b60405180910390fd5b3373ffffffffffffffffffffffffffffffffffffffff16600860008473ffffffffffffffffffffffffffffffffffffffff1673ffffffffffffffffffffffffffffffffffffffff1681526020019081526020016000208281548110610ae6577f4e487b7100000000000000000000000000000000000000000000000000000000600052603260045260246000fd5b906000526020600020906005020160040160009054906101000a900473ffffffffffffffffffffffffffffffffffffffff1673ffffffffffffffffffffffffffffffffffffffff161480610b875750600160009054906101000a900473ffffffffffffffffffffffffffffffffffffffff1673ffffffffffffffffffffffffffffffffffffffff163373ffffffffffffffffffffffffffffffffffffffff16145b610bc6576040517f08c379a0000000000000000000000000000000000000000000000000000000008152600401610bbd90611f53565b60405180910390fd5b600860008373ffffffffffffffffffffffffffffffffffffffff1673ffffffffffffffffffffffffffffffffffffffff1681526020019081526020016000208181548110610c3d577f4e487b7100000000000000000000000000000000000000000000000000000000600052603260045260246000fd5b906000526020600020906005020160010154421015610c5b57600080fd5b60001515600860008473ffffffffffffffffffffffffffffffffffffffff1673ffffffffffffffffffffffffffffffffffffffff1681526020019081526020016000208281548110610cd6577f4e487b7100000000000000000000000000000000000000000000000000000000600052603260045260246000fd5b906000526020600020906005020160040160149054906101000a90505050600760008481526020019081526020016000206000815480929190610d18906122b3565b9190505550670de0b6b3a76400006127106003600086815260200190815260200160002060020154600860008673ffffffffffffffffffffffffffffffffffffffff1673ffffffffffffffffffffffffffffffffffffffff1681526020019081526020016000208481548110610db7577f4e487b7100000000000000000000000000000000000000000000000000000000600052603260045260246000fd5b906000526020600020906005020160020154610dd391906121c2565b610ddd9190612191565b610de7919061213b565b6005600085815260200190815260200160002060003373ffffffffffffffffffffffffffffffffffffffff1673ffffffffffffffffffffffffffffffffffffffff16815260200190815260200160002081905550505050565b6003600082815260200190815260200160002060030160009054906101000a900473ffffffffffffffffffffffffffffffffffffffff1673ffffffffffffffffffffffffffffffffffffffff163373ffffffffffffffffffffffffffffffffffffffff1614610ee4576040517f08c379a0000000000000000000000000000000000000000000000000000000008152600401610edb90611fd3565b60405180910390fd5b8160036000838152602001908152602001600020600201819055505050565b60066020528060005260406000206000915090505481565b60046020528160005260406000206020528060005260406000206000915091509054906101000a900460ff1681565b60006003600060025481526020019081526020016000206001015414610f6f57600080fd5b6040518060c0016040528042815260200160025481526020016105dc81526020013373ffffffffffffffffffffffffffffffffffffffff1681526020018281526020016001151581525060036000600254815260200190815260200160002060008201518160000155602082015181600101556040820151816002015560608201518160030160006101000a81548173ffffffffffffffffffffffffffffffffffffffff021916908373ffffffffffffffffffffffffffffffffffffffff160217905550608082015181600401908051906020019061104f929190611907565b5060a08201518160050160006101000a81548160ff0219169083151502179055509050506002600081548092919061108690612340565b91905055506009600081548092919061109e90612340565b919050555050565b60011515600460003373ffffffffffffffffffffffffffffffffffffffff1673ffffffffffffffffffffffffffffffffffffffff168152602001908152602001600020600085815260200190815260200160002060009054906101000a900460ff1615151461114a576040517f08c379a000000000000000000000000000000000000000000000000000000000815260040161114190611f93565b60405180910390fd5b81421061118c576040517f08c379a000000000000000000000000000000000000000000000000000000000815260040161118390611f73565b60405180910390fd5b60008160ff1667ffffffffffffffff8111156111d1577f4e487b7100000000000000000000000000000000000000000000000000000000600052604160045260246000fd5b6040519080825280602002602001820160405280156111ff5781602001602082028036833780820191505090505b50905060005b8260ff1681101561127257600082828151811061124b577f4e487b7100000000000000000000000000000000000000000000000000000000600052603260045260246000fd5b602002602001019060ff16908160ff1681525050808061126a90612340565b915050611205565b50600860003373ffffffffffffffffffffffffffffffffffffffff1673ffffffffffffffffffffffffffffffffffffffff1681526020019081526020016000206040518060c00160405280428152602001858152602001600081526020018381526020013373ffffffffffffffffffffffffffffffffffffffff168152602001600115158152509080600181540180825580915050600190039060005260206000209060050201600090919091909150600082015181600001556020820151816001015560408201518160020155606082015181600301908051906020019061135c92919061198d565b5060808201518160040160006101000a81548173ffffffffffffffffffffffffffffffffffffffff021916908373ffffffffffffffffffffffffffffffffffffffff16021790555060a08201518160040160146101000a81548160ff02191690831515021790555050506006600085815260200190815260200160002060008154809291906113ea90612340565b919050555060076000858152602001908152602001600020600081548092919061141390612340565b919050555050505050565b6008602052816000526040600020818154811061143a57600080fd5b9060005260206000209060050201600091509150508060000154908060010154908060020154908060040160009054906101000a900473ffffffffffffffffffffffffffffffffffffffff16908060040160149054906101000a900460ff16905085565b3373ffffffffffffffffffffffffffffffffffffffff166003600085815260200190815260200160002060030160009054906101000a900473ffffffffffffffffffffffffffffffffffffffff1673ffffffffffffffffffffffffffffffffffffffff1614611542576040517f08c379a000000000000000000000000000000000000000000000000000000000815260040161153990611ef3565b60405180910390fd5b814210611584576040517f08c379a000000000000000000000000000000000000000000000000000000000815260040161157b90611f73565b60405180910390fd5b60008160ff1667ffffffffffffffff8111156115c9577f4e487b7100000000000000000000000000000000000000000000000000000000600052604160045260246000fd5b6040519080825280602002602001820160405280156115f75781602001602082028036833780820191505090505b50905060005b8260ff1681101561166a576000828281518110611643577f4e487b7100000000000000000000000000000000000000000000000000000000600052603260045260246000fd5b602002602001019060ff16908160ff1681525050808061166290612340565b9150506115fd565b50600860003373ffffffffffffffffffffffffffffffffffffffff1673ffffffffffffffffffffffffffffffffffffffff1681526020019081526020016000206040518060c00160405280428152602001858152602001600081526020018381526020013373ffffffffffffffffffffffffffffffffffffffff168152602001600115158152509080600181540180825580915050600190039060005260206000209060050201600090919091909150600082015181600001556020820151816001015560408201518160020155606082015181600301908051906020019061175492919061198d565b5060808201518160040160006101000a81548173ffffffffffffffffffffffffffffffffffffffff021916908373ffffffffffffffffffffffffffffffffffffffff16021790555060a08201518160040160146101000a81548160ff02191690831515021790555050506006600085815260200190815260200160002060008154809291906117e290612340565b919050555060076000858152602001908152602001600020600081548092919061180b90612340565b919050555050505050565b60036020528060005260406000206000915090508060000154908060010154908060020154908060030160009054906101000a900473ffffffffffffffffffffffffffffffffffffffff1690806004018054611871906122dd565b80601f016020809104026020016040519081016040528092919081815260200182805461189d906122dd565b80156118ea5780601f106118bf576101008083540402835291602001916118ea565b820191906000526020600020905b8154815290600101906020018083116118cd57829003601f168201915b5050505050908060050160009054906101000a900460ff16905086565b828054611913906122dd565b90600052602060002090601f016020900481019282611935576000855561197c565b82601f1061194e57805160ff191683800117855561197c565b8280016001018555821561197c579182015b8281111561197b578251825591602001919060010190611960565b5b5090506119899190611a34565b5090565b82805482825590600052602060002090601f01602090048101928215611a235791602002820160005b838211156119f457835183826101000a81548160ff021916908360ff16021790555092602001926001016020816000010492830192600103026119b6565b8015611a215782816101000a81549060ff02191690556001016020816000010492830192600103026119f4565b505b509050611a309190611a34565b5090565b5b80821115611a4d576000816000905550600101611a35565b5090565b6000611a64611a5f846120ee565b6120c9565b905082815260208101848484011115611a7c57600080fd5b611a87848285612271565b509392505050565b600081359050611a9e816125f1565b92915050565b600082601f830112611ab557600080fd5b8135611ac5848260208601611a51565b91505092915050565b600081359050611add81612608565b92915050565b600081359050611af28161261f565b92915050565b60008060408385031215611b0b57600080fd5b6000611b1985828601611a8f565b9250506020611b2a85828601611ace565b9150509250929050565b600060208284031215611b4657600080fd5b600082013567ffffffffffffffff811115611b6057600080fd5b611b6c84828501611aa4565b91505092915050565b600060208284031215611b8757600080fd5b6000611b9584828501611ace565b91505092915050565b60008060408385031215611bb157600080fd5b6000611bbf85828601611ace565b9250506020611bd085828601611a8f565b9150509250929050565b600080600060608486031215611bef57600080fd5b6000611bfd86828701611ace565b9350506020611c0e86828701611a8f565b9250506040611c1f86828701611ace565b9150509250925092565b60008060008060808587031215611c3f57600080fd5b6000611c4d87828801611ace565b9450506020611c5e87828801611a8f565b9350506040611c6f87828801611ace565b9250506060611c8087828801611ace565b91505092959194509250565b60008060408385031215611c9f57600080fd5b6000611cad85828601611ace565b9250506020611cbe85828601611ace565b9150509250929050565b600080600060608486031215611cdd57600080fd5b6000611ceb86828701611ace565b9350506020611cfc86828701611ace565b9250506040611d0d86828701611ae3565b9150509250925092565b611d208161221c565b82525050565b611d2f8161222e565b82525050565b6000611d408261211f565b611d4a818561212a565b9350611d5a818560208601612280565b611d638161246f565b840191505092915050565b6000611d7b60108361212a565b9150611d8682612480565b602082019050919050565b6000611d9e600f8361212a565b9150611da9826124a9565b602082019050919050565b6000611dc160098361212a565b9150611dcc826124d2565b602082019050919050565b6000611de460108361212a565b9150611def826124fb565b602082019050919050565b6000611e07600c8361212a565b9150611e1282612524565b602082019050919050565b6000611e2a60058361212a565b9150611e358261254d565b602082019050919050565b6000611e4d60098361212a565b9150611e5882612576565b602082019050919050565b6000611e70601f8361212a565b9150611e7b8261259f565b602082019050919050565b6000611e9360068361212a565b9150611e9e826125c8565b602082019050919050565b611eb28161225a565b82525050565b6000602082019050611ecd6000830184611d26565b92915050565b60006020820190508181036000830152611eec81611d6e565b9050919050565b60006020820190508181036000830152611f0c81611d91565b9050919050565b60006020820190508181036000830152611f2c81611db4565b9050919050565b60006020820190508181036000830152611f4c81611dd7565b9050919050565b60006020820190508181036000830152611f6c81611dfa565b9050919050565b60006020820190508181036000830152611f8c81611e1d565b9050919050565b60006020820190508181036000830152611fac81611e40565b9050919050565b60006020820190508181036000830152611fcc81611e63565b9050919050565b60006020820190508181036000830152611fec81611e86565b9050919050565b60006020820190506120086000830184611ea9565b92915050565b600060a0820190506120236000830188611ea9565b6120306020830187611ea9565b61203d6040830186611ea9565b61204a6060830185611d17565b6120576080830184611d26565b9695505050505050565b600060c0820190506120766000830189611ea9565b6120836020830188611ea9565b6120906040830187611ea9565b61209d6060830186611d17565b81810360808301526120af8185611d35565b90506120be60a0830184611d26565b979650505050505050565b60006120d36120e4565b90506120df828261230f565b919050565b6000604051905090565b600067ffffffffffffffff82111561210957612108612440565b5b6121128261246f565b9050602081019050919050565b600081519050919050565b600082825260208201905092915050565b60006121468261225a565b91506121518361225a565b9250827fffffffffffffffffffffffffffffffffffffffffffffffffffffffffffffffff03821115612186576121856123b3565b5b828201905092915050565b600061219c8261225a565b91506121a78361225a565b9250826121b7576121b66123e2565b5b828204905092915050565b60006121cd8261225a565b91506121d88361225a565b9250817fffffffffffffffffffffffffffffffffffffffffffffffffffffffffffffffff0483118215151615612211576122106123b3565b5b828202905092915050565b60006122278261223a565b9050919050565b60008115159050919050565b600073ffffffffffffffffffffffffffffffffffffffff82169050919050565b6000819050919050565b600060ff82169050919050565b82818337600083830152505050565b60005b8381101561229e578082015181840152602081019050612283565b838111156122ad576000848401525b50505050565b60006122be8261225a565b915060008214156122d2576122d16123b3565b5b600182039050919050565b600060028204905060018216806122f557607f821691505b6020821081141561230957612308612411565b5b50919050565b6123188261246f565b810181811067ffffffffffffffff8211171561233757612336612440565b5b80604052505050565b600061234b8261225a565b91507fffffffffffffffffffffffffffffffffffffffffffffffffffffffffffffffff82141561237e5761237d6123b3565b5b600182019050919050565b600061239482612264565b915060ff8214156123a8576123a76123b3565b5b600182019050919050565b7f4e487b7100000000000000000000000000000000000000000000000000000000600052601160045260246000fd5b7f4e487b7100000000000000000000000000000000000000000000000000000000600052601260045260246000fd5b7f4e487b7100000000000000000000000000000000000000000000000000000000600052602260045260246000fd5b7f4e487b7100000000000000000000000000000000000000000000000000000000600052604160045260246000fd5b6000601f19601f8301169050919050565b7f616c726561647920656d706c6f79656500000000000000000000000000000000600082015250565b7f6f6e6c7920617574686f72697a65640000000000000000000000000000000000600082015250565b7f21646561644c696e650000000000000000000000000000000000000000000000600082015250565b7f2166696e6973686564416c726561647900000000000000000000000000000000600082015250565b7f216f6e6c7943726561746f720000000000000000000000000000000000000000600082015250565b7f2174696d65000000000000000000000000000000000000000000000000000000600082015250565b7f21656d706c6f7965650000000000000000000000000000000000000000000000600082015250565b7f5265656e7472616e637947756172643a207265656e7472616e742063616c6c00600082015250565b7f216f776e65720000000000000000000000000000000000000000000000000000600082015250565b6125fa8161221c565b811461260557600080fd5b50565b6126118161225a565b811461261c57600080fd5b50565b61262881612264565b811461263357600080fd5b5056fea26469706673582212209c50c1ae2454394b31f109a9fa031d65c39082a8ab618963897b7d0345909bbb64736f6c63430008040033",
  "linkReferences": {},
  "deployedLinkReferences": {}
}