{
  "_format": "hh-sol-artifact-1",
  "contractName": "DAO",
  "sourceName": "contracts/DAO.sol",
  "abi": [
    {
      "anonymous": false,
      "inputs": [
        {
          "indexed": true,
          "internalType": "address",
          "name": "previousOwner",
          "type": "address"
        },
        {
          "indexed": true,
          "internalType": "address",
          "name": "newOwner",
          "type": "address"
        }
      ],
      "name": "OwnershipTransferred",
      "type": "event"
    },
    {
      "inputs": [
        {
          "internalType": "address",
          "name": "",
          "type": "address"
        },
        {
          "internalType": "uint256",
          "name": "",
          "type": "uint256"
        }
      ],
      "name": "allProposals",
      "outputs": [
        {
          "internalType": "uint256",
          "name": "initializedAt",
          "type": "uint256"
        },
        {
          "internalType": "uint256",
          "name": "deadLine",
          "type": "uint256"
        },
        {
          "internalType": "uint256",
          "name": "totalVoted",
          "type": "uint256"
        },
        {
          "internalType": "address",
          "name": "creator",
          "type": "address"
        },
        {
          "internalType": "bool",
          "name": "active",
          "type": "bool"
        }
      ],
      "stateMutability": "view",
      "type": "function"
    },
    {
      "inputs": [
        {
          "internalType": "uint256",
          "name": "",
          "type": "uint256"
        }
      ],
      "name": "companyDescription",
      "outputs": [
        {
          "internalType": "uint256",
          "name": "initializedAt",
          "type": "uint256"
        },
        {
          "internalType": "uint256",
          "name": "companyId",
          "type": "uint256"
        },
        {
          "internalType": "address",
          "name": "owner",
          "type": "address"
        },
        {
          "internalType": "string",
          "name": "companyName",
          "type": "string"
        },
        {
          "internalType": "bool",
          "name": "active",
          "type": "bool"
        }
      ],
      "stateMutability": "view",
      "type": "function"
    },
    {
      "inputs": [
        {
          "internalType": "uint256",
          "name": "_companyIndex",
          "type": "uint256"
        },
        {
          "internalType": "uint256",
          "name": "_deadLine",
          "type": "uint256"
        },
        {
          "internalType": "uint8",
          "name": "_inputTargets",
          "type": "uint8"
        }
      ],
      "name": "createProposalFromCompany",
      "outputs": [],
      "stateMutability": "nonpayable",
      "type": "function"
    },
    {
      "inputs": [
        {
          "internalType": "address",
          "name": "",
          "type": "address"
        },
        {
          "internalType": "uint256",
          "name": "",
          "type": "uint256"
        }
      ],
      "name": "formerEmployee",
      "outputs": [
        {
          "internalType": "bool",
          "name": "",
          "type": "bool"
        }
      ],
      "stateMutability": "view",
      "type": "function"
    },
    {
      "inputs": [
        {
          "internalType": "address",
          "name": "",
          "type": "address"
        },
        {
          "internalType": "uint256",
          "name": "",
          "type": "uint256"
        }
      ],
      "name": "isEmployee",
      "outputs": [
        {
          "internalType": "bool",
          "name": "",
          "type": "bool"
        }
      ],
      "stateMutability": "view",
      "type": "function"
    },
    {
      "inputs": [
        {
          "internalType": "uint256",
          "name": "_companyIndex",
          "type": "uint256"
        },
        {
          "internalType": "string",
          "name": "_id",
          "type": "string"
        },
        {
          "internalType": "uint256",
          "name": "_nonce",
          "type": "uint256"
        }
      ],
      "name": "kickEmployee",
      "outputs": [],
      "stateMutability": "nonpayable",
      "type": "function"
    },
    {
      "inputs": [
        {
          "internalType": "uint256",
          "name": "",
          "type": "uint256"
        }
      ],
      "name": "onGoingProposals",
      "outputs": [
        {
          "internalType": "uint256",
          "name": "",
          "type": "uint256"
        }
      ],
      "stateMutability": "view",
      "type": "function"
    },
    {
      "inputs": [],
      "name": "owner",
      "outputs": [
        {
          "internalType": "address",
          "name": "",
          "type": "address"
        }
      ],
      "stateMutability": "view",
      "type": "function"
    },
    {
      "inputs": [
        {
          "internalType": "uint256",
          "name": "",
          "type": "uint256"
        }
      ],
      "name": "proposalsCreated",
      "outputs": [
        {
          "internalType": "uint256",
          "name": "",
          "type": "uint256"
        }
      ],
      "stateMutability": "view",
      "type": "function"
    },
    {
      "inputs": [],
      "name": "renounceOwnership",
      "outputs": [],
      "stateMutability": "nonpayable",
      "type": "function"
    },
    {
      "inputs": [
        {
          "components": [
            {
              "internalType": "string",
              "name": "id",
              "type": "string"
            },
            {
              "internalType": "uint256",
              "name": "nonce",
              "type": "uint256"
            }
          ],
          "internalType": "struct DAO.EmployeeForm[]",
          "name": "employeeForm",
          "type": "tuple[]"
        },
        {
          "internalType": "uint256",
          "name": "_companyIndex",
          "type": "uint256"
        }
      ],
      "name": "setHashes",
      "outputs": [],
      "stateMutability": "nonpayable",
      "type": "function"
    },
    {
      "inputs": [
        {
          "internalType": "string",
          "name": "_name",
          "type": "string"
        },
        {
          "internalType": "address",
          "name": "_companyRepresenter",
          "type": "address"
        }
      ],
      "name": "signCompany",
      "outputs": [],
      "stateMutability": "nonpayable",
      "type": "function"
    },
    {
      "inputs": [
        {
          "internalType": "uint256",
          "name": "_companyIndex",
          "type": "uint256"
        },
        {
          "internalType": "string",
          "name": "_id",
          "type": "string"
        },
        {
          "internalType": "uint256",
          "name": "_nonce",
          "type": "uint256"
        }
      ],
      "name": "signEmployee",
      "outputs": [],
      "stateMutability": "nonpayable",
      "type": "function"
    },
    {
      "inputs": [
        {
          "internalType": "uint256",
          "name": "_companyIndex",
          "type": "uint256"
        },
        {
          "internalType": "address",
          "name": "_proposalCreator",
          "type": "address"
        },
        {
          "internalType": "uint256",
          "name": "_proposalIndex",
          "type": "uint256"
        },
        {
          "internalType": "uint256",
          "name": "_input",
          "type": "uint256"
        }
      ],
      "name": "submitEmployeeVote",
      "outputs": [],
      "stateMutability": "nonpayable",
      "type": "function"
    },
    {
      "inputs": [
        {
          "internalType": "address",
          "name": "newOwner",
          "type": "address"
        }
      ],
      "name": "transferOwnership",
      "outputs": [],
      "stateMutability": "nonpayable",
      "type": "function"
    },
    {
      "inputs": [
        {
          "internalType": "uint256",
          "name": "",
          "type": "uint256"
        },
        {
          "internalType": "address",
          "name": "",
          "type": "address"
        }
      ],
      "name": "votedProposals",
      "outputs": [
        {
          "internalType": "uint256",
          "name": "",
          "type": "uint256"
        }
      ],
      "stateMutability": "view",
      "type": "function"
    }
  ],
  "bytecode": "0x608060405260016002553480156200001657600080fd5b50620000376200002b6200004460201b60201c565b6200004c60201b60201c565b6001808190555062000110565b600033905090565b60008060009054906101000a900473ffffffffffffffffffffffffffffffffffffffff169050816000806101000a81548173ffffffffffffffffffffffffffffffffffffffff021916908373ffffffffffffffffffffffffffffffffffffffff1602179055508173ffffffffffffffffffffffffffffffffffffffff168173ffffffffffffffffffffffffffffffffffffffff167f8be0079c531659141344cd1fd0a4f28419497f9722a3daafe3b4186f6b6457e060405160405180910390a35050565b61276680620001206000396000f3fe608060405234801561001057600080fd5b50600436106101005760003560e01c8063828e2dc611610097578063c9ec237411610066578063c9ec2374146102ad578063f2e06782146102c9578063f2fde38b146102f9578063fad4b2841461031557610100565b8063828e2dc61461020f5780638da5cb5b1461023f578063a34edca81461025d578063c00263991461027957610100565b80632fd8b4af116100d35780632fd8b4af1461018957806351850ffc146101a55780635289e6ad146101d5578063715018a61461020557610100565b806308ec1fee1461010557806308f50e89146101215780630a17addd1461013d57806328fc64e21461016d575b600080fd5b61011f600480360381019061011a9190611d12565b610349565b005b61013b60048036038101906101369190611d75565b610770565b005b61015760048036038101906101529190611cad565b610990565b6040516101649190612177565b60405180910390f35b61018760048036038101906101829190611c01565b6109a8565b005b6101a3600480360381019061019e9190611c59565b610c4d565b005b6101bf60048036038101906101ba9190611cd6565b610e4e565b6040516101cc9190612177565b60405180910390f35b6101ef60048036038101906101ea9190611cad565b610e73565b6040516101fc9190612177565b60405180910390f35b61020d610e8b565b005b61022960048036038101906102249190611bc5565b610f13565b604051610236919061205c565b60405180910390f35b610247610f42565b6040516102549190612041565b60405180910390f35b61027760048036038101906102729190611d75565b610f6b565b005b610293600480360381019061028e9190611bc5565b611256565b6040516102a49594939291906121ec565b60405180910390f35b6102c760048036038101906102c29190611ddc565b6112d6565b005b6102e360048036038101906102de9190611bc5565b61164e565b6040516102f0919061205c565b60405180910390f35b610313600480360381019061030e9190611b9c565b61167d565b005b61032f600480360381019061032a9190611cad565b611775565b604051610340959493929190612192565b60405180910390f35b60011515600460003373ffffffffffffffffffffffffffffffffffffffff1673ffffffffffffffffffffffffffffffffffffffff168152602001908152602001600020600086815260200190815260200160002060009054906101000a900460ff161515146103ed576040517f08c379a00000000000000000000000000000000000000000000000000000000081526004016103e490612157565b60405180910390fd5b60011515600960008573ffffffffffffffffffffffffffffffffffffffff1673ffffffffffffffffffffffffffffffffffffffff1681526020019081526020016000208381548110610468577f4e487b7100000000000000000000000000000000000000000000000000000000600052603260045260246000fd5b906000526020600020906005020160040160149054906101000a900460ff161515146104c9576040517f08c379a00000000000000000000000000000000000000000000000000000000081526004016104c0906120f7565b60405180910390fd5b600960008473ffffffffffffffffffffffffffffffffffffffff1673ffffffffffffffffffffffffffffffffffffffff1681526020019081526020016000208281548110610540577f4e487b7100000000000000000000000000000000000000000000000000000000600052603260045260246000fd5b90600052602060002090600502016001015442111561055e57600080fd5b600960008473ffffffffffffffffffffffffffffffffffffffff1673ffffffffffffffffffffffffffffffffffffffff16815260200190815260200160002082815481106105d5577f4e487b7100000000000000000000000000000000000000000000000000000000600052603260045260246000fd5b9060005260206000209060050201600301818154811061061e577f4e487b7100000000000000000000000000000000000000000000000000000000600052603260045260246000fd5b906000526020600020906020918282040191900681819054906101000a900460ff168092919061064d9061247a565b91906101000a81548160ff021916908360ff16021790555050600960008473ffffffffffffffffffffffffffffffffffffffff1673ffffffffffffffffffffffffffffffffffffffff16815260200190815260200160002082815481106106dd577f4e487b7100000000000000000000000000000000000000000000000000000000600052603260045260246000fd5b906000526020600020906005020160020160008154809291906106ff90612431565b91905055506006600085815260200190815260200160002060003373ffffffffffffffffffffffffffffffffffffffff1673ffffffffffffffffffffffffffffffffffffffff168152602001908152602001600020600081548092919061076590612431565b919050555050505050565b600061077c8383611860565b90503073ffffffffffffffffffffffffffffffffffffffff16600b6000868152602001908152602001600020600083815260200190815260200160002060009054906101000a900473ffffffffffffffffffffffffffffffffffffffff1673ffffffffffffffffffffffffffffffffffffffff16146107fa57600080fd5b60001515600460003373ffffffffffffffffffffffffffffffffffffffff1673ffffffffffffffffffffffffffffffffffffffff168152602001908152602001600020600086815260200190815260200160002060009054906101000a900460ff1615151461089e576040517f08c379a000000000000000000000000000000000000000000000000000000000815260040161089590612097565b60405180910390fd5b600073ffffffffffffffffffffffffffffffffffffffff163373ffffffffffffffffffffffffffffffffffffffff1614156108d857600080fd5b6001600460003373ffffffffffffffffffffffffffffffffffffffff1673ffffffffffffffffffffffffffffffffffffffff168152602001908152602001600020600086815260200190815260200160002060006101000a81548160ff021916908315150217905550600073ffffffffffffffffffffffffffffffffffffffff16600b6000868152602001908152602001600020600083815260200190815260200160002060009054906101000a9050505050505050565b60086020528060005260406000206000915090505481565b3373ffffffffffffffffffffffffffffffffffffffff166003600083815260200190815260200160002060020160009054906101000a900473ffffffffffffffffffffffffffffffffffffffff1673ffffffffffffffffffffffffffffffffffffffff1614610a4c576040517f08c379a0000000000000000000000000000000000000000000000000000000008152600401610a43906120d7565b60405180910390fd5b60005b838390508111610c47576000610b4f858584818110610a97577f4e487b7100000000000000000000000000000000000000000000000000000000600052603260045260246000fd5b9050602002810190610aa99190612296565b8060000190610ab8919061223f565b8080601f016020809104026020016040519081016040528093929190818152602001838380828437600081840152601f19601f82011690508083019250505050505050868685818110610b34577f4e487b7100000000000000000000000000000000000000000000000000000000600052603260045260246000fd5b9050602002810190610b469190612296565b60200135611860565b9050600073ffffffffffffffffffffffffffffffffffffffff16600b6000858152602001908152602001600020600083815260200190815260200160002060009054906101000a900473ffffffffffffffffffffffffffffffffffffffff1673ffffffffffffffffffffffffffffffffffffffff1614610bcf5750610c34565b30600b6000858152602001908152602001600020600083815260200190815260200160002060006101000a81548173ffffffffffffffffffffffffffffffffffffffff021916908373ffffffffffffffffffffffffffffffffffffffff160217905550505b8080610c3f90612431565b915050610a4f565b50505050565b610c55611895565b73ffffffffffffffffffffffffffffffffffffffff16610c73610f42565b73ffffffffffffffffffffffffffffffffffffffff1614610cc9576040517f08c379a0000000000000000000000000000000000000000000000000000000008152600401610cc090612117565b60405180910390fd5b60006003600060025481526020019081526020016000206001015414610cee57600080fd5b600073ffffffffffffffffffffffffffffffffffffffff168173ffffffffffffffffffffffffffffffffffffffff161415610d2857600080fd5b6040518060a0016040528042815260200160025481526020018273ffffffffffffffffffffffffffffffffffffffff16815260200183815260200160011515815250600360006002548152602001908152602001600020600082015181600001556020820151816001015560408201518160020160006101000a81548173ffffffffffffffffffffffffffffffffffffffff021916908373ffffffffffffffffffffffffffffffffffffffff1602179055506060820151816003019080519060200190610df6929190611961565b5060808201518160040160006101000a81548160ff02191690831515021790555090505060026000815480929190610e2d90612431565b9190505550600a6000815480929190610e4590612431565b91905055505050565b6006602052816000526040600020602052806000526040600020600091509150505481565b60076020528060005260406000206000915090505481565b610e93611895565b73ffffffffffffffffffffffffffffffffffffffff16610eb1610f42565b73ffffffffffffffffffffffffffffffffffffffff1614610f07576040517f08c379a0000000000000000000000000000000000000000000000000000000008152600401610efe90612117565b60405180910390fd5b610f11600061189d565b565b60046020528160005260406000206020528060005260406000206000915091509054906101000a900460ff1681565b60008060009054906101000a900473ffffffffffffffffffffffffffffffffffffffff16905090565b3373ffffffffffffffffffffffffffffffffffffffff166003600085815260200190815260200160002060020160009054906101000a900473ffffffffffffffffffffffffffffffffffffffff1673ffffffffffffffffffffffffffffffffffffffff161461100f576040517f08c379a0000000000000000000000000000000000000000000000000000000008152600401611006906120d7565b60405180910390fd5b600061101b8383611860565b9050600073ffffffffffffffffffffffffffffffffffffffff16600b6000868152602001908152602001600020600083815260200190815260200160002060009054906101000a900473ffffffffffffffffffffffffffffffffffffffff1673ffffffffffffffffffffffffffffffffffffffff1614156110d1576040517f08c379a00000000000000000000000000000000000000000000000000000000081526004016110c890612077565b60405180910390fd5b6000600b6000868152602001908152602001600020600083815260200190815260200160002060009054906101000a900473ffffffffffffffffffffffffffffffffffffffff16905030600b6000878152602001908152602001600020600084815260200190815260200160002060006101000a81548173ffffffffffffffffffffffffffffffffffffffff021916908373ffffffffffffffffffffffffffffffffffffffff1602179055506000600460008373ffffffffffffffffffffffffffffffffffffffff1673ffffffffffffffffffffffffffffffffffffffff168152602001908152602001600020600087815260200190815260200160002060006101000a81548160ff0219169083151502179055506001600560008373ffffffffffffffffffffffffffffffffffffffff1673ffffffffffffffffffffffffffffffffffffffff168152602001908152602001600020600087815260200190815260200160002060006101000a81548160ff0219169083151502179055505050505050565b6009602052816000526040600020818154811061127257600080fd5b9060005260206000209060050201600091509150508060000154908060010154908060020154908060040160009054906101000a900473ffffffffffffffffffffffffffffffffffffffff16908060040160149054906101000a900460ff16905085565b3373ffffffffffffffffffffffffffffffffffffffff166003600085815260200190815260200160002060020160009054906101000a900473ffffffffffffffffffffffffffffffffffffffff1673ffffffffffffffffffffffffffffffffffffffff161461137a576040517f08c379a0000000000000000000000000000000000000000000000000000000008152600401611371906120d7565b60405180910390fd5b8142106113bc576040517f08c379a00000000000000000000000000000000000000000000000000000000081526004016113b390612137565b60405180910390fd5b60008160ff1667ffffffffffffffff811115611401577f4e487b7100000000000000000000000000000000000000000000000000000000600052604160045260246000fd5b60405190808252806020026020018201604052801561142f5781602001602082028036833780820191505090505b50905060005b8260ff168110156114a257600082828151811061147b577f4e487b7100000000000000000000000000000000000000000000000000000000600052603260045260246000fd5b602002602001019060ff16908160ff1681525050808061149a90612431565b915050611435565b50600960003373ffffffffffffffffffffffffffffffffffffffff1673ffffffffffffffffffffffffffffffffffffffff1681526020019081526020016000206040518060c00160405280428152602001858152602001600081526020018381526020013373ffffffffffffffffffffffffffffffffffffffff168152602001600115158152509080600181540180825580915050600190039060005260206000209060050201600090919091909150600082015181600001556020820151816001015560408201518160020155606082015181600301908051906020019061158c9291906119e7565b5060808201518160040160006101000a81548173ffffffffffffffffffffffffffffffffffffffff021916908373ffffffffffffffffffffffffffffffffffffffff16021790555060a08201518160040160146101000a81548160ff021916908315150217905550505060076000858152602001908152602001600020600081548092919061161a90612431565b919050555060086000858152602001908152602001600020600081548092919061164390612431565b919050555050505050565b60056020528160005260406000206020528060005260406000206000915091509054906101000a900460ff1681565b611685611895565b73ffffffffffffffffffffffffffffffffffffffff166116a3610f42565b73ffffffffffffffffffffffffffffffffffffffff16146116f9576040517f08c379a00000000000000000000000000000000000000000000000000000000081526004016116f090612117565b60405180910390fd5b600073ffffffffffffffffffffffffffffffffffffffff168173ffffffffffffffffffffffffffffffffffffffff161415611769576040517f08c379a0000000000000000000000000000000000000000000000000000000008152600401611760906120b7565b60405180910390fd5b6117728161189d565b50565b60036020528060005260406000206000915090508060000154908060010154908060020160009054906101000a900473ffffffffffffffffffffffffffffffffffffffff16908060030180546117ca906123ce565b80601f01602080910402602001604051908101604052809291908181526020018280546117f6906123ce565b80156118435780601f1061181857610100808354040283529160200191611843565b820191906000526020600020905b81548152906001019060200180831161182657829003601f168201915b5050505050908060040160009054906101000a900460ff16905085565b600082823060405160200161187793929190612008565b60405160208183030381529060405280519060200120905092915050565b600033905090565b60008060009054906101000a900473ffffffffffffffffffffffffffffffffffffffff169050816000806101000a81548173ffffffffffffffffffffffffffffffffffffffff021916908373ffffffffffffffffffffffffffffffffffffffff1602179055508173ffffffffffffffffffffffffffffffffffffffff168173ffffffffffffffffffffffffffffffffffffffff167f8be0079c531659141344cd1fd0a4f28419497f9722a3daafe3b4186f6b6457e060405160405180910390a35050565b82805461196d906123ce565b90600052602060002090601f01602090048101928261198f57600085556119d6565b82601f106119a857805160ff19168380011785556119d6565b828001600101855582156119d6579182015b828111156119d55782518255916020019190600101906119ba565b5b5090506119e39190611a8e565b5090565b82805482825590600052602060002090601f01602090048101928215611a7d5791602002820160005b83821115611a4e57835183826101000a81548160ff021916908360ff1602179055509260200192600101602081600001049283019260010302611a10565b8015611a7b5782816101000a81549060ff0219169055600101602081600001049283019260010302611a4e565b505b509050611a8a9190611a8e565b5090565b5b80821115611aa7576000816000905550600101611a8f565b5090565b6000611abe611ab9846122df565b6122ba565b905082815260208101848484011115611ad657600080fd5b611ae184828561238c565b509392505050565b600081359050611af8816126eb565b92915050565b60008083601f840112611b1057600080fd5b8235905067ffffffffffffffff811115611b2957600080fd5b602083019150836020820283011115611b4157600080fd5b9250929050565b600082601f830112611b5957600080fd5b8135611b69848260208601611aab565b91505092915050565b600081359050611b8181612702565b92915050565b600081359050611b9681612719565b92915050565b600060208284031215611bae57600080fd5b6000611bbc84828501611ae9565b91505092915050565b60008060408385031215611bd857600080fd5b6000611be685828601611ae9565b9250506020611bf785828601611b72565b9150509250929050565b600080600060408486031215611c1657600080fd5b600084013567ffffffffffffffff811115611c3057600080fd5b611c3c86828701611afe565b93509350506020611c4f86828701611b72565b9150509250925092565b60008060408385031215611c6c57600080fd5b600083013567ffffffffffffffff811115611c8657600080fd5b611c9285828601611b48565b9250506020611ca385828601611ae9565b9150509250929050565b600060208284031215611cbf57600080fd5b6000611ccd84828501611b72565b91505092915050565b60008060408385031215611ce957600080fd5b6000611cf785828601611b72565b9250506020611d0885828601611ae9565b9150509250929050565b60008060008060808587031215611d2857600080fd5b6000611d3687828801611b72565b9450506020611d4787828801611ae9565b9350506040611d5887828801611b72565b9250506060611d6987828801611b72565b91505092959194509250565b600080600060608486031215611d8a57600080fd5b6000611d9886828701611b72565b935050602084013567ffffffffffffffff811115611db557600080fd5b611dc186828701611b48565b9250506040611dd286828701611b72565b9150509250925092565b600080600060608486031215611df157600080fd5b6000611dff86828701611b72565b9350506020611e1086828701611b72565b9250506040611e2186828701611b87565b9150509250925092565b611e3481612337565b82525050565b611e4b611e4682612337565b6124a4565b82525050565b611e5a81612349565b82525050565b6000611e6b82612310565b611e75818561231b565b9350611e8581856020860161239b565b611e8e8161255f565b840191505092915050565b6000611ea482612310565b611eae818561232c565b9350611ebe81856020860161239b565b80840191505092915050565b6000611ed7600f8361231b565b9150611ee28261257d565b602082019050919050565b6000611efa60108361231b565b9150611f05826125a6565b602082019050919050565b6000611f1d60268361231b565b9150611f28826125cf565b604082019050919050565b6000611f40600f8361231b565b9150611f4b8261261e565b602082019050919050565b6000611f6360098361231b565b9150611f6e82612647565b602082019050919050565b6000611f8660208361231b565b9150611f9182612670565b602082019050919050565b6000611fa960058361231b565b9150611fb482612699565b602082019050919050565b6000611fcc60098361231b565b9150611fd7826126c2565b602082019050919050565b611feb81612375565b82525050565b612002611ffd82612375565b6124c8565b82525050565b60006120148286611e99565b91506120208285611ff1565b6020820191506120308284611e3a565b601482019150819050949350505050565b60006020820190506120566000830184611e2b565b92915050565b60006020820190506120716000830184611e51565b92915050565b6000602082019050818103600083015261209081611eca565b9050919050565b600060208201905081810360008301526120b081611eed565b9050919050565b600060208201905081810360008301526120d081611f10565b9050919050565b600060208201905081810360008301526120f081611f33565b9050919050565b6000602082019050818103600083015261211081611f56565b9050919050565b6000602082019050818103600083015261213081611f79565b9050919050565b6000602082019050818103600083015261215081611f9c565b9050919050565b6000602082019050818103600083015261217081611fbf565b9050919050565b600060208201905061218c6000830184611fe2565b92915050565b600060a0820190506121a76000830188611fe2565b6121b46020830187611fe2565b6121c16040830186611e2b565b81810360608301526121d38185611e60565b90506121e26080830184611e51565b9695505050505050565b600060a0820190506122016000830188611fe2565b61220e6020830187611fe2565b61221b6040830186611fe2565b6122286060830185611e2b565b6122356080830184611e51565b9695505050505050565b6000808335600160200384360303811261225857600080fd5b80840192508235915067ffffffffffffffff82111561227657600080fd5b60208301925060018202360383131561228e57600080fd5b509250929050565b6000823560016040038336030381126122ae57600080fd5b80830191505092915050565b60006122c46122d5565b90506122d08282612400565b919050565b6000604051905090565b600067ffffffffffffffff8211156122fa576122f9612530565b5b6123038261255f565b9050602081019050919050565b600081519050919050565b600082825260208201905092915050565b600081905092915050565b600061234282612355565b9050919050565b60008115159050919050565b600073ffffffffffffffffffffffffffffffffffffffff82169050919050565b6000819050919050565b600060ff82169050919050565b82818337600083830152505050565b60005b838110156123b957808201518184015260208101905061239e565b838111156123c8576000848401525b50505050565b600060028204905060018216806123e657607f821691505b602082108114156123fa576123f9612501565b5b50919050565b6124098261255f565b810181811067ffffffffffffffff8211171561242857612427612530565b5b80604052505050565b600061243c82612375565b91507fffffffffffffffffffffffffffffffffffffffffffffffffffffffffffffffff82141561246f5761246e6124d2565b5b600182019050919050565b60006124858261237f565b915060ff821415612499576124986124d2565b5b600182019050919050565b60006124af826124b6565b9050919050565b60006124c182612570565b9050919050565b6000819050919050565b7f4e487b7100000000000000000000000000000000000000000000000000000000600052601160045260246000fd5b7f4e487b7100000000000000000000000000000000000000000000000000000000600052602260045260246000fd5b7f4e487b7100000000000000000000000000000000000000000000000000000000600052604160045260246000fd5b6000601f19601f8301169050919050565b60008160601b9050919050565b7f6e6f7420616e20656d706c6f7965650000000000000000000000000000000000600082015250565b7f616c726561647920656d706c6f79656500000000000000000000000000000000600082015250565b7f4f776e61626c653a206e6577206f776e657220697320746865207a65726f206160008201527f6464726573730000000000000000000000000000000000000000000000000000602082015250565b7f6f6e6c7920617574686f72697a65640000000000000000000000000000000000600082015250565b7f21646561644c696e650000000000000000000000000000000000000000000000600082015250565b7f4f776e61626c653a2063616c6c6572206973206e6f7420746865206f776e6572600082015250565b7f2174696d65000000000000000000000000000000000000000000000000000000600082015250565b7f21656d706c6f7965650000000000000000000000000000000000000000000000600082015250565b6126f481612337565b81146126ff57600080fd5b50565b61270b81612375565b811461271657600080fd5b50565b6127228161237f565b811461272d57600080fd5b5056fea2646970667358221220a942581491f56d8dba85c3acda65fd550be5265130a07d49eef1cfc6ca296adc64736f6c63430008040033",
  "linkReferences": {},
  "deployedLinkReferences": {}
}